{
  "_format": "hh-sol-artifact-1",
  "contractName": "HealthChain",
  "sourceName": "contracts/HealthChain.sol",
  "abi": [
    {
      "inputs": [
        {
          "internalType": "string",
          "name": "_initialDoctorVerifierListIPFS",
          "type": "string"
        },
        {
          "internalType": "string",
          "name": "_initialPharmacyVerifierListIPFS",
          "type": "string"
        }
      ],
      "stateMutability": "nonpayable",
      "type": "constructor"
    },
    {
      "anonymous": false,
      "inputs": [
        {
          "indexed": true,
          "internalType": "address",
          "name": "doctor",
          "type": "address"
        }
      ],
      "name": "DoctorRegistered",
      "type": "event"
    },
    {
      "anonymous": false,
      "inputs": [
        {
          "indexed": true,
          "internalType": "address",
          "name": "doctor",
          "type": "address"
        },
        {
          "indexed": true,
          "internalType": "address",
          "name": "verifier",
          "type": "address"
        }
      ],
      "name": "DoctorVerified",
      "type": "event"
    },
    {
      "anonymous": false,
      "inputs": [
        {
          "indexed": true,
          "internalType": "address",
          "name": "pharmacist",
          "type": "address"
        }
      ],
      "name": "PharmacistRegistered",
      "type": "event"
    },
    {
      "anonymous": false,
      "inputs": [
        {
          "indexed": true,
          "internalType": "address",
          "name": "pharmacist",
          "type": "address"
        },
        {
          "indexed": true,
          "internalType": "address",
          "name": "verifier",
          "type": "address"
        }
      ],
      "name": "PharmacistVerified",
      "type": "event"
    },
    {
      "anonymous": false,
      "inputs": [
        {
          "indexed": true,
          "internalType": "uint256",
          "name": "prescriptionId",
          "type": "uint256"
        },
        {
          "indexed": true,
          "internalType": "address",
          "name": "pharmacist",
          "type": "address"
        },
        {
          "indexed": false,
          "internalType": "string",
          "name": "ipfsHash",
          "type": "string"
        }
      ],
      "name": "PrescriptionDispensed",
      "type": "event"
    },
    {
      "anonymous": false,
      "inputs": [
        {
          "indexed": true,
          "internalType": "uint256",
          "name": "prescriptionId",
          "type": "uint256"
        },
        {
          "indexed": true,
          "internalType": "address",
          "name": "doctor",
          "type": "address"
        },
        {
          "indexed": true,
          "internalType": "string",
          "name": "patientHash",
          "type": "string"
        },
        {
          "indexed": false,
          "internalType": "string",
          "name": "ipfsHash",
          "type": "string"
        }
      ],
      "name": "PrescriptionIssued",
      "type": "event"
    },
    {
      "anonymous": false,
      "inputs": [
        {
          "indexed": false,
          "internalType": "string",
          "name": "verifierType",
          "type": "string"
        },
        {
          "indexed": false,
          "internalType": "string",
          "name": "newIPFSHash",
          "type": "string"
        }
      ],
      "name": "VerifierListUpdated",
      "type": "event"
    },
    {
      "inputs": [],
      "name": "admin",
      "outputs": [
        {
          "internalType": "address",
          "name": "",
          "type": "address"
        }
      ],
      "stateMutability": "view",
      "type": "function"
    },
    {
      "inputs": [
        {
          "internalType": "uint256",
          "name": "_prescriptionId",
          "type": "uint256"
        },
        {
          "internalType": "string",
          "name": "_dispensedIPFS",
          "type": "string"
        }
      ],
      "name": "dispensePrescription",
      "outputs": [],
      "stateMutability": "nonpayable",
      "type": "function"
    },
    {
      "inputs": [],
      "name": "doctorVerifierListIPFS",
      "outputs": [
        {
          "internalType": "string",
          "name": "",
          "type": "string"
        }
      ],
      "stateMutability": "view",
      "type": "function"
    },
    {
      "inputs": [
        {
          "internalType": "address",
          "name": "",
          "type": "address"
        }
      ],
      "name": "doctors",
      "outputs": [
        {
          "internalType": "bool",
          "name": "exists",
          "type": "bool"
        },
        {
          "internalType": "bool",
          "name": "verified",
          "type": "bool"
        },
        {
          "internalType": "string",
          "name": "ipfsHash",
          "type": "string"
        }
      ],
      "stateMutability": "view",
      "type": "function"
    },
    {
      "inputs": [],
      "name": "getDoctorVerifierList",
      "outputs": [
        {
          "internalType": "string",
          "name": "",
          "type": "string"
        }
      ],
      "stateMutability": "view",
      "type": "function"
    },
    {
      "inputs": [
        {
          "internalType": "string",
          "name": "_patientHash",
          "type": "string"
        }
      ],
      "name": "getPatientPrescriptions",
      "outputs": [
        {
          "internalType": "string[]",
          "name": "",
          "type": "string[]"
        }
      ],
      "stateMutability": "view",
      "type": "function"
    },
    {
      "inputs": [],
      "name": "getPharmacyVerifierList",
      "outputs": [
        {
          "internalType": "string",
          "name": "",
          "type": "string"
        }
      ],
      "stateMutability": "view",
      "type": "function"
    },
    {
      "inputs": [
        {
          "internalType": "uint256",
          "name": "_prescriptionId",
          "type": "uint256"
        }
      ],
      "name": "getPrescription",
      "outputs": [
        {
          "components": [
            {
              "internalType": "address",
              "name": "doctor",
              "type": "address"
            },
            {
              "internalType": "string",
              "name": "patientHash",
              "type": "string"
            },
            {
              "internalType": "string",
              "name": "prescriptionIPFS",
              "type": "string"
            },
            {
              "internalType": "bool",
              "name": "dispensed",
              "type": "bool"
            },
            {
              "internalType": "address",
              "name": "pharmacist",
              "type": "address"
            },
            {
              "internalType": "string",
              "name": "dispensedIPFS",
              "type": "string"
            }
          ],
          "internalType": "struct HealthChain.Prescription",
          "name": "",
          "type": "tuple"
        }
      ],
      "stateMutability": "view",
      "type": "function"
    },
    {
      "inputs": [
        {
          "internalType": "address",
          "name": "_doctor",
          "type": "address"
        }
      ],
      "name": "isDoctorVerified",
      "outputs": [
        {
          "internalType": "bool",
          "name": "",
          "type": "bool"
        }
      ],
      "stateMutability": "view",
      "type": "function"
    },
    {
      "inputs": [
        {
          "internalType": "address",
          "name": "_pharmacist",
          "type": "address"
        }
      ],
      "name": "isPharmacistVerified",
      "outputs": [
        {
          "internalType": "bool",
          "name": "",
          "type": "bool"
        }
      ],
      "stateMutability": "view",
      "type": "function"
    },
    {
      "inputs": [
        {
          "internalType": "string",
          "name": "_patientHash",
          "type": "string"
        },
        {
          "internalType": "string",
          "name": "_prescriptionIPFS",
          "type": "string"
        }
      ],
      "name": "issuePrescription",
      "outputs": [
        {
          "internalType": "uint256",
          "name": "",
          "type": "uint256"
        }
      ],
      "stateMutability": "nonpayable",
      "type": "function"
    },
    {
      "inputs": [
        {
          "internalType": "string",
          "name": "",
          "type": "string"
        },
        {
          "internalType": "uint256",
          "name": "",
          "type": "uint256"
        }
      ],
      "name": "patientPrescriptions",
      "outputs": [
        {
          "internalType": "string",
          "name": "",
          "type": "string"
        }
      ],
      "stateMutability": "view",
      "type": "function"
    },
    {
      "inputs": [
        {
          "internalType": "address",
          "name": "",
          "type": "address"
        }
      ],
      "name": "pharmacists",
      "outputs": [
        {
          "internalType": "bool",
          "name": "exists",
          "type": "bool"
        },
        {
          "internalType": "bool",
          "name": "verified",
          "type": "bool"
        },
        {
          "internalType": "string",
          "name": "ipfsHash",
          "type": "string"
        }
      ],
      "stateMutability": "view",
      "type": "function"
    },
    {
      "inputs": [],
      "name": "pharmacyVerifierListIPFS",
      "outputs": [
        {
          "internalType": "string",
          "name": "",
          "type": "string"
        }
      ],
      "stateMutability": "view",
      "type": "function"
    },
    {
      "inputs": [],
      "name": "prescriptionCount",
      "outputs": [
        {
          "internalType": "uint256",
          "name": "",
          "type": "uint256"
        }
      ],
      "stateMutability": "view",
      "type": "function"
    },
    {
      "inputs": [
        {
          "internalType": "uint256",
          "name": "",
          "type": "uint256"
        }
      ],
      "name": "prescriptions",
      "outputs": [
        {
          "internalType": "address",
          "name": "doctor",
          "type": "address"
        },
        {
          "internalType": "string",
          "name": "patientHash",
          "type": "string"
        },
        {
          "internalType": "string",
          "name": "prescriptionIPFS",
          "type": "string"
        },
        {
          "internalType": "bool",
          "name": "dispensed",
          "type": "bool"
        },
        {
          "internalType": "address",
          "name": "pharmacist",
          "type": "address"
        },
        {
          "internalType": "string",
          "name": "dispensedIPFS",
          "type": "string"
        }
      ],
      "stateMutability": "view",
      "type": "function"
    },
    {
      "inputs": [
        {
          "internalType": "string",
          "name": "_ipfsHash",
          "type": "string"
        }
      ],
      "name": "registerDoctor",
      "outputs": [
        {
          "components": [
            {
              "internalType": "bool",
              "name": "exists",
              "type": "bool"
            },
            {
              "internalType": "bool",
              "name": "verified",
              "type": "bool"
            },
            {
              "internalType": "address[]",
              "name": "verifier",
              "type": "address[]"
            },
            {
              "internalType": "string",
              "name": "ipfsHash",
              "type": "string"
            }
          ],
          "internalType": "struct HealthChain.Doctor",
          "name": "",
          "type": "tuple"
        }
      ],
      "stateMutability": "nonpayable",
      "type": "function"
    },
    {
      "inputs": [
        {
          "internalType": "string",
          "name": "_ipfsHash",
          "type": "string"
        }
      ],
      "name": "registerPharmacist",
      "outputs": [
        {
          "components": [
            {
              "internalType": "bool",
              "name": "exists",
              "type": "bool"
            },
            {
              "internalType": "bool",
              "name": "verified",
              "type": "bool"
            },
            {
              "internalType": "address[]",
              "name": "verifier",
              "type": "address[]"
            },
            {
              "internalType": "string",
              "name": "ipfsHash",
              "type": "string"
            }
          ],
          "internalType": "struct HealthChain.Pharmacist",
          "name": "",
          "type": "tuple"
        }
      ],
      "stateMutability": "nonpayable",
      "type": "function"
    },
    {
      "inputs": [
        {
          "internalType": "string",
          "name": "_newIPFSHash",
          "type": "string"
        }
      ],
      "name": "updateDoctorVerifierList",
      "outputs": [],
      "stateMutability": "nonpayable",
      "type": "function"
    },
    {
      "inputs": [
        {
          "internalType": "string",
          "name": "_newIPFSHash",
          "type": "string"
        }
      ],
      "name": "updatePharmacyVerifierList",
      "outputs": [],
      "stateMutability": "nonpayable",
      "type": "function"
    },
    {
      "inputs": [
        {
          "internalType": "address",
          "name": "_doctor",
          "type": "address"
        }
      ],
      "name": "verifyDoctor",
      "outputs": [],
      "stateMutability": "nonpayable",
      "type": "function"
    },
    {
      "inputs": [
        {
          "internalType": "address",
          "name": "_pharmacist",
          "type": "address"
        }
      ],
      "name": "verifyPharmacist",
      "outputs": [],
      "stateMutability": "nonpayable",
      "type": "function"
    }
  ],
  "bytecode": "0x608060405234801561001057600080fd5b5060405161404a38038061404a8339818101604052810190610032919061020e565b816006908161004191906104a7565b50806007908161005191906104a7565b50336000806101000a81548173ffffffffffffffffffffffffffffffffffffffff021916908373ffffffffffffffffffffffffffffffffffffffff1602179055505050610579565b6000604051905090565b600080fd5b600080fd5b600080fd5b600080fd5b6000601f19601f8301169050919050565b7f4e487b7100000000000000000000000000000000000000000000000000000000600052604160045260246000fd5b610100826100b7565b810181811067ffffffffffffffff8211171561011f5761011e6100c8565b5b80604052505050565b6000610132610099565b905061013e82826100f7565b919050565b600067ffffffffffffffff82111561015e5761015d6100c8565b5b610167826100b7565b9050602081019050919050565b60005b83811015610192578082015181840152602081019050610177565b60008484015250505050565b60006101b16101ac84610143565b610128565b9050828152602081018484840111156101cd576101cc6100b2565b5b6101d8848285610174565b509392505050565b600082601f8301126101f5576101f46100ad565b5b815161020584826020860161019e565b91505092915050565b60008060408385031215610225576102246100a3565b5b600083015167ffffffffffffffff811115610243576102426100a8565b5b61024f858286016101e0565b925050602083015167ffffffffffffffff8111156102705761026f6100a8565b5b61027c858286016101e0565b9150509250929050565b600081519050919050565b7f4e487b7100000000000000000000000000000000000000000000000000000000600052602260045260246000fd5b600060028204905060018216806102d857607f821691505b6020821081036102eb576102ea610291565b5b50919050565b60008190508160005260206000209050919050565b60006020601f8301049050919050565b600082821b905092915050565b6000600883026103537fffffffffffffffffffffffffffffffffffffffffffffffffffffffffffffffff82610316565b61035d8683610316565b95508019841693508086168417925050509392505050565b6000819050919050565b6000819050919050565b60006103a461039f61039a84610375565b61037f565b610375565b9050919050565b6000819050919050565b6103be83610389565b6103d26103ca826103ab565b848454610323565b825550505050565b600090565b6103e76103da565b6103f28184846103b5565b505050565b5b818110156104165761040b6000826103df565b6001810190506103f8565b5050565b601f82111561045b5761042c816102f1565b61043584610306565b81016020851015610444578190505b61045861045085610306565b8301826103f7565b50505b505050565b600082821c905092915050565b600061047e60001984600802610460565b1980831691505092915050565b6000610497838361046d565b9150826002028217905092915050565b6104b082610286565b67ffffffffffffffff8111156104c9576104c86100c8565b5b6104d382546102c0565b6104de82828561041a565b600060209050601f83116001811461051157600084156104ff578287015190505b610509858261048b565b865550610571565b601f19841661051f866102f1565b60005b8281101561054757848901518255600182019150602085019450602081019050610522565b868310156105645784890151610560601f89168261046d565b8355505b6001600288020188555050505b505050505050565b613ac2806105886000396000f3fe608060405234801561001057600080fd5b50600436106101425760003560e01c80637329f460116100b8578063d1a06f461161007c578063d1a06f46146103e0578063d80cb05c146103fc578063ec4cc78c14610418578063eef02c2e14610434578063f851a44014610452578063ff16007e1461047057610142565b80637329f460146103145780638f09ab5b14610330578063a9583c2214610360578063b655849814610392578063c8451358146103b057610142565b80632e338def1161010a5780632e338def1461022757806331dfc91b146102575780633c5d5b801461028c578063462c6d13146102aa5780635e10df32146102c65780636f16af10146102e457610142565b80630b13acdf1461014757806312367db01461017757806318a6640c146101a75780631abf575a146101c55780632b72938e146101f7575b600080fd5b610161600480360381019061015c91906127e9565b6104a0565b60405161016e9190612831565b60405180910390f35b610191600480360381019061018c91906129c8565b6104f9565b60405161019e9190612aa3565b60405180910390f35b6101af6105c8565b6040516101bc9190612aa3565b60405180910390f35b6101df60048036038101906101da91906127e9565b610656565b6040516101ee93929190612ac5565b60405180910390f35b610211600480360381019061020c91906127e9565b610722565b60405161021e9190612831565b60405180910390f35b610241600480360381019061023c9190612b03565b61077b565b60405161024e9190612c58565b60405180910390f35b610271600480360381019061026c9190612c7a565b610872565b60405161028396959493929190612cb6565b60405180910390f35b610294610a93565b6040516102a19190612aa3565b60405180910390f35b6102c460048036038101906102bf91906127e9565b610b21565b005b6102ce610f53565b6040516102db9190612aa3565b60405180910390f35b6102fe60048036038101906102f99190612c7a565b610fe5565b60405161030b9190612de1565b60405180910390f35b61032e60048036038101906103299190612b03565b61128f565b005b61034a60048036038101906103459190612b03565b611367565b6040516103579190612f1c565b60405180910390f35b61037a600480360381019061037591906127e9565b61170e565b60405161038993929190612ac5565b60405180910390f35b61039a6117da565b6040516103a79190612f4d565b60405180910390f35b6103ca60048036038101906103c59190612f68565b6117e0565b6040516103d79190612f4d565b60405180910390f35b6103fa60048036038101906103f59190612b03565b611ac0565b005b610416600480360381019061041191906127e9565b611b98565b005b610432600480360381019061042d9190612fe0565b611fc9565b005b61043c6121b7565b6040516104499190612aa3565b60405180910390f35b61045a612249565b604051610467919061303c565b60405180910390f35b61048a60048036038101906104859190612b03565b61226d565b60405161049791906130c1565b60405180910390f35b6000600160008373ffffffffffffffffffffffffffffffffffffffff1673ffffffffffffffffffffffffffffffffffffffff16815260200190815260200160002060000160019054906101000a900460ff169050919050565b600482805160208101820180518482526020830160208501208183528095505050505050818154811061052b57600080fd5b9060005260206000200160009150915050805461054790613112565b80601f016020809104026020016040519081016040528092919081815260200182805461057390613112565b80156105c05780601f10610595576101008083540402835291602001916105c0565b820191906000526020600020905b8154815290600101906020018083116105a357829003601f168201915b505050505081565b600680546105d590613112565b80601f016020809104026020016040519081016040528092919081815260200182805461060190613112565b801561064e5780601f106106235761010080835404028352916020019161064e565b820191906000526020600020905b81548152906001019060200180831161063157829003601f168201915b505050505081565b60026020528060005260406000206000915090508060000160009054906101000a900460ff16908060000160019054906101000a900460ff169080600201805461069f90613112565b80601f01602080910402602001604051908101604052809291908181526020018280546106cb90613112565b80156107185780601f106106ed57610100808354040283529160200191610718565b820191906000526020600020905b8154815290600101906020018083116106fb57829003601f168201915b5050505050905083565b6000600260008373ffffffffffffffffffffffffffffffffffffffff1673ffffffffffffffffffffffffffffffffffffffff16815260200190815260200160002060000160019054906101000a900460ff169050919050565b606060048260405161078d919061317f565b9081526020016040518091039020805480602002602001604051908101604052809291908181526020016000905b828210156108675783829060005260206000200180546107da90613112565b80601f016020809104026020016040519081016040528092919081815260200182805461080690613112565b80156108535780601f1061082857610100808354040283529160200191610853565b820191906000526020600020905b81548152906001019060200180831161083657829003601f168201915b5050505050815260200190600101906107bb565b505050509050919050565b60036020528060005260406000206000915090508060000160009054906101000a900473ffffffffffffffffffffffffffffffffffffffff16908060010180546108bb90613112565b80601f01602080910402602001604051908101604052809291908181526020018280546108e790613112565b80156109345780601f1061090957610100808354040283529160200191610934565b820191906000526020600020905b81548152906001019060200180831161091757829003601f168201915b50505050509080600201805461094990613112565b80601f016020809104026020016040519081016040528092919081815260200182805461097590613112565b80156109c25780601f10610997576101008083540402835291602001916109c2565b820191906000526020600020905b8154815290600101906020018083116109a557829003601f168201915b5050505050908060030160009054906101000a900460ff16908060030160019054906101000a900473ffffffffffffffffffffffffffffffffffffffff1690806004018054610a1090613112565b80601f0160208091040260200160405190810160405280929190818152602001828054610a3c90613112565b8015610a895780601f10610a5e57610100808354040283529160200191610a89565b820191906000526020600020905b815481529060010190602001808311610a6c57829003601f168201915b5050505050905086565b60078054610aa090613112565b80601f0160208091040260200160405190810160405280929190818152602001828054610acc90613112565b8015610b195780601f10610aee57610100808354040283529160200191610b19565b820191906000526020600020905b815481529060010190602001808311610afc57829003601f168201915b505050505081565b600260008273ffffffffffffffffffffffffffffffffffffffff1673ffffffffffffffffffffffffffffffffffffffff16815260200190815260200160002060000160009054906101000a900460ff16610bb0576040517f08c379a0000000000000000000000000000000000000000000000000000000008152600401610ba7906131e2565b60405180910390fd5b600260008273ffffffffffffffffffffffffffffffffffffffff1673ffffffffffffffffffffffffffffffffffffffff16815260200190815260200160002060000160019054906101000a900460ff1615610c40576040517f08c379a0000000000000000000000000000000000000000000000000000000008152600401610c379061324e565b60405180910390fd5b3373ffffffffffffffffffffffffffffffffffffffff168173ffffffffffffffffffffffffffffffffffffffff1603610cae576040517f08c379a0000000000000000000000000000000000000000000000000000000008152600401610ca5906132ba565b60405180910390fd5b60005b600260008373ffffffffffffffffffffffffffffffffffffffff1673ffffffffffffffffffffffffffffffffffffffff16815260200190815260200160002060010180549050811015610df7573373ffffffffffffffffffffffffffffffffffffffff16600260008473ffffffffffffffffffffffffffffffffffffffff1673ffffffffffffffffffffffffffffffffffffffff1681526020019081526020016000206001018281548110610d6957610d686132da565b5b9060005260206000200160009054906101000a900473ffffffffffffffffffffffffffffffffffffffff1673ffffffffffffffffffffffffffffffffffffffff1603610dea576040517f08c379a0000000000000000000000000000000000000000000000000000000008152600401610de19061337b565b60405180910390fd5b8080600101915050610cb1565b506001600260008373ffffffffffffffffffffffffffffffffffffffff1673ffffffffffffffffffffffffffffffffffffffff16815260200190815260200160002060000160016101000a81548160ff021916908315150217905550600260008273ffffffffffffffffffffffffffffffffffffffff1673ffffffffffffffffffffffffffffffffffffffff168152602001908152602001600020600101339080600181540180825580915050600190039060005260206000200160009091909190916101000a81548173ffffffffffffffffffffffffffffffffffffffff021916908373ffffffffffffffffffffffffffffffffffffffff1602179055503373ffffffffffffffffffffffffffffffffffffffff168173ffffffffffffffffffffffffffffffffffffffff167f19dcb63de6975856487257e5e0fc6a95ec978af3636fd966f4d4aa4347ac89c760405160405180910390a350565b606060068054610f6290613112565b80601f0160208091040260200160405190810160405280929190818152602001828054610f8e90613112565b8015610fdb5780601f10610fb057610100808354040283529160200191610fdb565b820191906000526020600020905b815481529060010190602001808311610fbe57829003601f168201915b5050505050905090565b610fed612614565b600360008381526020019081526020016000206040518060c00160405290816000820160009054906101000a900473ffffffffffffffffffffffffffffffffffffffff1673ffffffffffffffffffffffffffffffffffffffff1673ffffffffffffffffffffffffffffffffffffffff16815260200160018201805461107190613112565b80601f016020809104026020016040519081016040528092919081815260200182805461109d90613112565b80156110ea5780601f106110bf576101008083540402835291602001916110ea565b820191906000526020600020905b8154815290600101906020018083116110cd57829003601f168201915b5050505050815260200160028201805461110390613112565b80601f016020809104026020016040519081016040528092919081815260200182805461112f90613112565b801561117c5780601f106111515761010080835404028352916020019161117c565b820191906000526020600020905b81548152906001019060200180831161115f57829003601f168201915b505050505081526020016003820160009054906101000a900460ff161515151581526020016003820160019054906101000a900473ffffffffffffffffffffffffffffffffffffffff1673ffffffffffffffffffffffffffffffffffffffff1673ffffffffffffffffffffffffffffffffffffffff16815260200160048201805461120690613112565b80601f016020809104026020016040519081016040528092919081815260200182805461123290613112565b801561127f5780601f106112545761010080835404028352916020019161127f565b820191906000526020600020905b81548152906001019060200180831161126257829003601f168201915b5050505050815250509050919050565b60008054906101000a900473ffffffffffffffffffffffffffffffffffffffff1673ffffffffffffffffffffffffffffffffffffffff163373ffffffffffffffffffffffffffffffffffffffff161461131d576040517f08c379a00000000000000000000000000000000000000000000000000000000081526004016113149061340d565b60405180910390fd5b806007908161132c91906135d9565b507f2727ce149c4fd736e091907e1828de3d2f79e9e4cea9519480fd697a24e7cf968160405161135c91906136f7565b60405180910390a150565b61136f612678565b600160003373ffffffffffffffffffffffffffffffffffffffff1673ffffffffffffffffffffffffffffffffffffffff16815260200190815260200160002060000160009054906101000a900460ff16156113ff576040517f08c379a00000000000000000000000000000000000000000000000000000000081526004016113f690613778565b60405180910390fd5b6040518060800160405280600115158152602001600015158152602001600067ffffffffffffffff81111561143757611436612867565b5b6040519080825280602002602001820160405280156114655781602001602082028036833780820191505090505b50815260200183815250600160003373ffffffffffffffffffffffffffffffffffffffff1673ffffffffffffffffffffffffffffffffffffffff16815260200190815260200160002060008201518160000160006101000a81548160ff02191690831515021790555060208201518160000160016101000a81548160ff021916908315150217905550604082015181600101908051906020019061150a9291906126a4565b50606082015181600201908161152091906135d9565b509050503373ffffffffffffffffffffffffffffffffffffffff167f2dc8105a7545248d0e354c4c6b02fb583071cc719fb4bef1ca74d72d475570bc60405160405180910390a2600160003373ffffffffffffffffffffffffffffffffffffffff1673ffffffffffffffffffffffffffffffffffffffff1681526020019081526020016000206040518060800160405290816000820160009054906101000a900460ff161515151581526020016000820160019054906101000a900460ff161515151581526020016001820180548060200260200160405190810160405280929190818152602001828054801561166c57602002820191906000526020600020905b8160009054906101000a900473ffffffffffffffffffffffffffffffffffffffff1673ffffffffffffffffffffffffffffffffffffffff1681526020019060010190808311611622575b5050505050815260200160028201805461168590613112565b80601f01602080910402602001604051908101604052809291908181526020018280546116b190613112565b80156116fe5780601f106116d3576101008083540402835291602001916116fe565b820191906000526020600020905b8154815290600101906020018083116116e157829003601f168201915b5050505050815250509050919050565b60016020528060005260406000206000915090508060000160009054906101000a900460ff16908060000160019054906101000a900460ff169080600201805461175790613112565b80601f016020809104026020016040519081016040528092919081815260200182805461178390613112565b80156117d05780601f106117a5576101008083540402835291602001916117d0565b820191906000526020600020905b8154815290600101906020018083116117b357829003601f168201915b5050505050905083565b60055481565b6000600160003373ffffffffffffffffffffffffffffffffffffffff1673ffffffffffffffffffffffffffffffffffffffff16815260200190815260200160002060000160019054906101000a900460ff16611871576040517f08c379a00000000000000000000000000000000000000000000000000000000081526004016118689061380a565b60405180910390fd5b6005600081548092919061188490613859565b91905055506040518060c001604052803373ffffffffffffffffffffffffffffffffffffffff168152602001848152602001838152602001600015158152602001600073ffffffffffffffffffffffffffffffffffffffff1681526020016040518060200160405280600081525081525060036000600554815260200190815260200160002060008201518160000160006101000a81548173ffffffffffffffffffffffffffffffffffffffff021916908373ffffffffffffffffffffffffffffffffffffffff160217905550602082015181600101908161196691906135d9565b50604082015181600201908161197c91906135d9565b5060608201518160030160006101000a81548160ff02191690831515021790555060808201518160030160016101000a81548173ffffffffffffffffffffffffffffffffffffffff021916908373ffffffffffffffffffffffffffffffffffffffff16021790555060a08201518160040190816119f991906135d9565b50905050600483604051611a0d919061317f565b908152602001604051809103902082908060018154018082558091505060019003906000526020600020016000909190919091509081611a4d91906135d9565b5082604051611a5c919061317f565b60405180910390203373ffffffffffffffffffffffffffffffffffffffff166005547f438ffc49c7517b5a34de8bdd2e07f9806928049e479da688312c0c9c350b84c385604051611aad9190612aa3565b60405180910390a4600554905092915050565b60008054906101000a900473ffffffffffffffffffffffffffffffffffffffff1673ffffffffffffffffffffffffffffffffffffffff163373ffffffffffffffffffffffffffffffffffffffff1614611b4e576040517f08c379a0000000000000000000000000000000000000000000000000000000008152600401611b459061340d565b60405180910390fd5b8060069081611b5d91906135d9565b507f2727ce149c4fd736e091907e1828de3d2f79e9e4cea9519480fd697a24e7cf9681604051611b8d91906138ed565b60405180910390a150565b600160008273ffffffffffffffffffffffffffffffffffffffff1673ffffffffffffffffffffffffffffffffffffffff16815260200190815260200160002060000160009054906101000a900460ff16611c27576040517f08c379a0000000000000000000000000000000000000000000000000000000008152600401611c1e9061396e565b60405180910390fd5b600160008273ffffffffffffffffffffffffffffffffffffffff1673ffffffffffffffffffffffffffffffffffffffff16815260200190815260200160002060000160019054906101000a900460ff1615611cb7576040517f08c379a0000000000000000000000000000000000000000000000000000000008152600401611cae9061324e565b60405180910390fd5b3373ffffffffffffffffffffffffffffffffffffffff168173ffffffffffffffffffffffffffffffffffffffff1603611d25576040517f08c379a0000000000000000000000000000000000000000000000000000000008152600401611d1c906132ba565b60405180910390fd5b60005b600160008373ffffffffffffffffffffffffffffffffffffffff1673ffffffffffffffffffffffffffffffffffffffff16815260200190815260200160002060010180549050811015611e6e573373ffffffffffffffffffffffffffffffffffffffff16600160008473ffffffffffffffffffffffffffffffffffffffff1673ffffffffffffffffffffffffffffffffffffffff1681526020019081526020016000206001018281548110611de057611ddf6132da565b5b9060005260206000200160009054906101000a900473ffffffffffffffffffffffffffffffffffffffff1673ffffffffffffffffffffffffffffffffffffffff1603611e61576040517f08c379a0000000000000000000000000000000000000000000000000000000008152600401611e589061337b565b60405180910390fd5b8080600101915050611d28565b5060018060008373ffffffffffffffffffffffffffffffffffffffff1673ffffffffffffffffffffffffffffffffffffffff16815260200190815260200160002060000160016101000a81548160ff021916908315150217905550600160008273ffffffffffffffffffffffffffffffffffffffff1673ffffffffffffffffffffffffffffffffffffffff168152602001908152602001600020600101339080600181540180825580915050600190039060005260206000200160009091909190916101000a81548173ffffffffffffffffffffffffffffffffffffffff021916908373ffffffffffffffffffffffffffffffffffffffff1602179055503373ffffffffffffffffffffffffffffffffffffffff168173ffffffffffffffffffffffffffffffffffffffff167fd5ee64cc05b0be498b4d26e3260e3df119d9bc6c6bac2e8a912351bbf36ee15160405160405180910390a350565b6003600083815260200190815260200160002060030160009054906101000a900460ff161561202d576040517f08c379a0000000000000000000000000000000000000000000000000000000008152600401612024906139da565b60405180910390fd5b600260003373ffffffffffffffffffffffffffffffffffffffff1673ffffffffffffffffffffffffffffffffffffffff16815260200190815260200160002060000160019054906101000a900460ff166120bc576040517f08c379a00000000000000000000000000000000000000000000000000000000081526004016120b390613a6c565b60405180910390fd5b60016003600084815260200190815260200160002060030160006101000a81548160ff021916908315150217905550336003600084815260200190815260200160002060030160016101000a81548173ffffffffffffffffffffffffffffffffffffffff021916908373ffffffffffffffffffffffffffffffffffffffff1602179055508060036000848152602001908152602001600020600401908161216391906135d9565b503373ffffffffffffffffffffffffffffffffffffffff16827f70c32b7c89ed6f3c7d3a36625bcf1a369318b835b6994eed1cd4a8df117a9de7836040516121ab9190612aa3565b60405180910390a35050565b6060600780546121c690613112565b80601f01602080910402602001604051908101604052809291908181526020018280546121f290613112565b801561223f5780601f106122145761010080835404028352916020019161223f565b820191906000526020600020905b81548152906001019060200180831161222257829003601f168201915b5050505050905090565b60008054906101000a900473ffffffffffffffffffffffffffffffffffffffff1681565b61227561272e565b600260003373ffffffffffffffffffffffffffffffffffffffff1673ffffffffffffffffffffffffffffffffffffffff16815260200190815260200160002060000160009054906101000a900460ff1615612305576040517f08c379a00000000000000000000000000000000000000000000000000000000081526004016122fc90613778565b60405180910390fd5b6040518060800160405280600115158152602001600015158152602001600067ffffffffffffffff81111561233d5761233c612867565b5b60405190808252806020026020018201604052801561236b5781602001602082028036833780820191505090505b50815260200183815250600260003373ffffffffffffffffffffffffffffffffffffffff1673ffffffffffffffffffffffffffffffffffffffff16815260200190815260200160002060008201518160000160006101000a81548160ff02191690831515021790555060208201518160000160016101000a81548160ff02191690831515021790555060408201518160010190805190602001906124109291906126a4565b50606082015181600201908161242691906135d9565b509050503373ffffffffffffffffffffffffffffffffffffffff167f6c217f4bf5d538fdbcbfa71cabb51e380ac4b3d37b09b49a5e75b4799312206c60405160405180910390a2600260003373ffffffffffffffffffffffffffffffffffffffff1673ffffffffffffffffffffffffffffffffffffffff1681526020019081526020016000206040518060800160405290816000820160009054906101000a900460ff161515151581526020016000820160019054906101000a900460ff161515151581526020016001820180548060200260200160405190810160405280929190818152602001828054801561257257602002820191906000526020600020905b8160009054906101000a900473ffffffffffffffffffffffffffffffffffffffff1673ffffffffffffffffffffffffffffffffffffffff1681526020019060010190808311612528575b5050505050815260200160028201805461258b90613112565b80601f01602080910402602001604051908101604052809291908181526020018280546125b790613112565b80156126045780601f106125d957610100808354040283529160200191612604565b820191906000526020600020905b8154815290600101906020018083116125e757829003601f168201915b5050505050815250509050919050565b6040518060c00160405280600073ffffffffffffffffffffffffffffffffffffffff1681526020016060815260200160608152602001600015158152602001600073ffffffffffffffffffffffffffffffffffffffff168152602001606081525090565b604051806080016040528060001515815260200160001515815260200160608152602001606081525090565b82805482825590600052602060002090810192821561271d579160200282015b8281111561271c5782518260006101000a81548173ffffffffffffffffffffffffffffffffffffffff021916908373ffffffffffffffffffffffffffffffffffffffff160217905550916020019190600101906126c4565b5b50905061272a919061275a565b5090565b604051806080016040528060001515815260200160001515815260200160608152602001606081525090565b5b8082111561277357600081600090555060010161275b565b5090565b6000604051905090565b600080fd5b600080fd5b600073ffffffffffffffffffffffffffffffffffffffff82169050919050565b60006127b68261278b565b9050919050565b6127c6816127ab565b81146127d157600080fd5b50565b6000813590506127e3816127bd565b92915050565b6000602082840312156127ff576127fe612781565b5b600061280d848285016127d4565b91505092915050565b60008115159050919050565b61282b81612816565b82525050565b60006020820190506128466000830184612822565b92915050565b600080fd5b600080fd5b6000601f19601f8301169050919050565b7f4e487b7100000000000000000000000000000000000000000000000000000000600052604160045260246000fd5b61289f82612856565b810181811067ffffffffffffffff821117156128be576128bd612867565b5b80604052505050565b60006128d1612777565b90506128dd8282612896565b919050565b600067ffffffffffffffff8211156128fd576128fc612867565b5b61290682612856565b9050602081019050919050565b82818337600083830152505050565b6000612935612930846128e2565b6128c7565b90508281526020810184848401111561295157612950612851565b5b61295c848285612913565b509392505050565b600082601f8301126129795761297861284c565b5b8135612989848260208601612922565b91505092915050565b6000819050919050565b6129a581612992565b81146129b057600080fd5b50565b6000813590506129c28161299c565b92915050565b600080604083850312156129df576129de612781565b5b600083013567ffffffffffffffff8111156129fd576129fc612786565b5b612a0985828601612964565b9250506020612a1a858286016129b3565b9150509250929050565b600081519050919050565b600082825260208201905092915050565b60005b83811015612a5e578082015181840152602081019050612a43565b60008484015250505050565b6000612a7582612a24565b612a7f8185612a2f565b9350612a8f818560208601612a40565b612a9881612856565b840191505092915050565b60006020820190508181036000830152612abd8184612a6a565b905092915050565b6000606082019050612ada6000830186612822565b612ae76020830185612822565b8181036040830152612af98184612a6a565b9050949350505050565b600060208284031215612b1957612b18612781565b5b600082013567ffffffffffffffff811115612b3757612b36612786565b5b612b4384828501612964565b91505092915050565b600081519050919050565b600082825260208201905092915050565b6000819050602082019050919050565b600082825260208201905092915050565b6000612b9482612a24565b612b9e8185612b78565b9350612bae818560208601612a40565b612bb781612856565b840191505092915050565b6000612bce8383612b89565b905092915050565b6000602082019050919050565b6000612bee82612b4c565b612bf88185612b57565b935083602082028501612c0a85612b68565b8060005b85811015612c465784840389528151612c278582612bc2565b9450612c3283612bd6565b925060208a01995050600181019050612c0e565b50829750879550505050505092915050565b60006020820190508181036000830152612c728184612be3565b905092915050565b600060208284031215612c9057612c8f612781565b5b6000612c9e848285016129b3565b91505092915050565b612cb0816127ab565b82525050565b600060c082019050612ccb6000830189612ca7565b8181036020830152612cdd8188612a6a565b90508181036040830152612cf18187612a6a565b9050612d006060830186612822565b612d0d6080830185612ca7565b81810360a0830152612d1f8184612a6a565b9050979650505050505050565b612d35816127ab565b82525050565b612d4481612816565b82525050565b600060c083016000830151612d626000860182612d2c565b5060208301518482036020860152612d7a8282612b89565b91505060408301518482036040860152612d948282612b89565b9150506060830151612da96060860182612d3b565b506080830151612dbc6080860182612d2c565b5060a083015184820360a0860152612dd48282612b89565b9150508091505092915050565b60006020820190508181036000830152612dfb8184612d4a565b905092915050565b600081519050919050565b600082825260208201905092915050565b6000819050602082019050919050565b6000612e3b8383612d2c565b60208301905092915050565b6000602082019050919050565b6000612e5f82612e03565b612e698185612e0e565b9350612e7483612e1f565b8060005b83811015612ea5578151612e8c8882612e2f565b9750612e9783612e47565b925050600181019050612e78565b5085935050505092915050565b6000608083016000830151612eca6000860182612d3b565b506020830151612edd6020860182612d3b565b5060408301518482036040860152612ef58282612e54565b91505060608301518482036060860152612f0f8282612b89565b9150508091505092915050565b60006020820190508181036000830152612f368184612eb2565b905092915050565b612f4781612992565b82525050565b6000602082019050612f626000830184612f3e565b92915050565b60008060408385031215612f7f57612f7e612781565b5b600083013567ffffffffffffffff811115612f9d57612f9c612786565b5b612fa985828601612964565b925050602083013567ffffffffffffffff811115612fca57612fc9612786565b5b612fd685828601612964565b9150509250929050565b60008060408385031215612ff757612ff6612781565b5b6000613005858286016129b3565b925050602083013567ffffffffffffffff81111561302657613025612786565b5b61303285828601612964565b9150509250929050565b60006020820190506130516000830184612ca7565b92915050565b600060808301600083015161306f6000860182612d3b565b5060208301516130826020860182612d3b565b506040830151848203604086015261309a8282612e54565b915050606083015184820360608601526130b48282612b89565b9150508091505092915050565b600060208201905081810360008301526130db8184613057565b905092915050565b7f4e487b7100000000000000000000000000000000000000000000000000000000600052602260045260246000fd5b6000600282049050600182168061312a57607f821691505b60208210810361313d5761313c6130e3565b5b50919050565b600081905092915050565b600061315982612a24565b6131638185613143565b9350613173818560208601612a40565b80840191505092915050565b600061318b828461314e565b915081905092915050565b7f506861726d6163697374206e6f74207265676973746572656400000000000000600082015250565b60006131cc601983612a2f565b91506131d782613196565b602082019050919050565b600060208201905081810360008301526131fb816131bf565b9050919050565b7f416c726561647920766572696669656400000000000000000000000000000000600082015250565b6000613238601083612a2f565b915061324382613202565b602082019050919050565b600060208201905081810360008301526132678161322b565b9050919050565b7f43616e6e6f74207665726966792073656c660000000000000000000000000000600082015250565b60006132a4601283612a2f565b91506132af8261326e565b602082019050919050565b600060208201905081810360008301526132d381613297565b9050919050565b7f4e487b7100000000000000000000000000000000000000000000000000000000600052603260045260246000fd5b7f416c72656164792076657269666965642062792074686973207665726966696560008201527f7200000000000000000000000000000000000000000000000000000000000000602082015250565b6000613365602183612a2f565b915061337082613309565b604082019050919050565b6000602082019050818103600083015261339481613358565b9050919050565b7f4f6e6c79206f776e65722063616e2063616c6c20746869732066756e6374696f60008201527f6e00000000000000000000000000000000000000000000000000000000000000602082015250565b60006133f7602183612a2f565b91506134028261339b565b604082019050919050565b60006020820190508181036000830152613426816133ea565b9050919050565b60008190508160005260206000209050919050565b60006020601f8301049050919050565b600082821b905092915050565b60006008830261348f7fffffffffffffffffffffffffffffffffffffffffffffffffffffffffffffffff82613452565b6134998683613452565b95508019841693508086168417925050509392505050565b6000819050919050565b60006134d66134d16134cc84612992565b6134b1565b612992565b9050919050565b6000819050919050565b6134f0836134bb565b6135046134fc826134dd565b84845461345f565b825550505050565b600090565b61351961350c565b6135248184846134e7565b505050565b5b818110156135485761353d600082613511565b60018101905061352a565b5050565b601f82111561358d5761355e8161342d565b61356784613442565b81016020851015613576578190505b61358a61358285613442565b830182613529565b50505b505050565b600082821c905092915050565b60006135b060001984600802613592565b1980831691505092915050565b60006135c9838361359f565b9150826002028217905092915050565b6135e282612a24565b67ffffffffffffffff8111156135fb576135fa612867565b5b6136058254613112565b61361082828561354c565b600060209050601f8311600181146136435760008415613631578287015190505b61363b85826135bd565b8655506136a3565b601f1984166136518661342d565b60005b8281101561367957848901518255600182019150602085019450602081019050613654565b868310156136965784890151613692601f89168261359f565b8355505b6001600288020188555050505b505050505050565b7f506861726d61637956657269666965724c697374000000000000000000000000600082015250565b60006136e1601483612a2f565b91506136ec826136ab565b602082019050919050565b60006040820190508181036000830152613710816136d4565b905081810360208301526137248184612a6a565b905092915050565b7f416c726561647920726567697374657265640000000000000000000000000000600082015250565b6000613762601283612a2f565b915061376d8261372c565b602082019050919050565b6000602082019050818103600083015261379181613755565b9050919050565b7f4f6e6c7920766572696669656420646f63746f72732063616e2069737375652060008201527f707265736372697074696f6e7300000000000000000000000000000000000000602082015250565b60006137f4602d83612a2f565b91506137ff82613798565b604082019050919050565b60006020820190508181036000830152613823816137e7565b9050919050565b7f4e487b7100000000000000000000000000000000000000000000000000000000600052601160045260246000fd5b600061386482612992565b91507fffffffffffffffffffffffffffffffffffffffffffffffffffffffffffffffff82036138965761389561382a565b5b600182019050919050565b7f446f63746f7256657269666965724c6973740000000000000000000000000000600082015250565b60006138d7601283612a2f565b91506138e2826138a1565b602082019050919050565b60006040820190508181036000830152613906816138ca565b9050818103602083015261391a8184612a6a565b905092915050565b7f446f63746f72206e6f7420726567697374657265640000000000000000000000600082015250565b6000613958601583612a2f565b915061396382613922565b602082019050919050565b600060208201905081810360008301526139878161394b565b9050919050565b7f507265736372697074696f6e20616c72656164792064697370656e7365640000600082015250565b60006139c4601e83612a2f565b91506139cf8261398e565b602082019050919050565b600060208201905081810360008301526139f3816139b7565b9050919050565b7f4f6e6c7920766572696669656420706861726d6163697374732063616e20646960008201527f7370656e736520707265736372697074696f6e73000000000000000000000000602082015250565b6000613a56603483612a2f565b9150613a61826139fa565b604082019050919050565b60006020820190508181036000830152613a8581613a49565b905091905056fea26469706673582212205664cef61b555998722f5d036d132979c7556f3c68a87ab1202eb24e7c9a342f64736f6c634300081c0033",
  "linkReferences": {},
  "deployedLinkReferences": {}
}