{
  "_format": "hh-sol-artifact-1",
  "contractName": "HealthChain",
  "sourceName": "contracts/HealthChain.sol",
  "abi": [
    {
      "inputs": [],
      "stateMutability": "nonpayable",
      "type": "constructor"
    },
    {
      "anonymous": false,
      "inputs": [
        {
          "indexed": true,
          "internalType": "address",
          "name": "doctor",
          "type": "address"
        }
      ],
      "name": "DoctorRegistered",
      "type": "event"
    },
    {
      "anonymous": false,
      "inputs": [
        {
          "indexed": true,
          "internalType": "address",
          "name": "doctor",
          "type": "address"
        },
        {
          "indexed": true,
          "internalType": "address",
          "name": "verifier",
          "type": "address"
        }
      ],
      "name": "DoctorVerified",
      "type": "event"
    },
    {
      "anonymous": false,
      "inputs": [
        {
          "indexed": true,
          "internalType": "address",
          "name": "pharmacist",
          "type": "address"
        }
      ],
      "name": "PharmacistRegistered",
      "type": "event"
    },
    {
      "anonymous": false,
      "inputs": [
        {
          "indexed": true,
          "internalType": "address",
          "name": "pharmacist",
          "type": "address"
        },
        {
          "indexed": true,
          "internalType": "address",
          "name": "verifier",
          "type": "address"
        }
      ],
      "name": "PharmacistVerified",
      "type": "event"
    },
    {
      "anonymous": false,
      "inputs": [
        {
          "indexed": true,
          "internalType": "uint256",
          "name": "prescriptionId",
          "type": "uint256"
        },
        {
          "indexed": true,
          "internalType": "address",
          "name": "pharmacist",
          "type": "address"
        },
        {
          "indexed": false,
          "internalType": "string",
          "name": "ipfsHash",
          "type": "string"
        }
      ],
      "name": "PrescriptionDispensed",
      "type": "event"
    },
    {
      "anonymous": false,
      "inputs": [
        {
          "indexed": true,
          "internalType": "uint256",
          "name": "prescriptionId",
          "type": "uint256"
        },
        {
          "indexed": true,
          "internalType": "address",
          "name": "doctor",
          "type": "address"
        },
        {
          "indexed": true,
          "internalType": "string",
          "name": "patientHash",
          "type": "string"
        },
        {
          "indexed": false,
          "internalType": "string",
          "name": "ipfsHash",
          "type": "string"
        }
      ],
      "name": "PrescriptionIssued",
      "type": "event"
    },
    {
      "anonymous": false,
      "inputs": [
        {
          "indexed": false,
          "internalType": "string",
          "name": "verifierType",
          "type": "string"
        },
        {
          "indexed": false,
          "internalType": "string",
          "name": "newIPFSHash",
          "type": "string"
        }
      ],
      "name": "VerifierListUpdated",
      "type": "event"
    },
    {
      "inputs": [],
      "name": "admin",
      "outputs": [
        {
          "internalType": "address",
          "name": "",
          "type": "address"
        }
      ],
      "stateMutability": "view",
      "type": "function"
    },
    {
      "inputs": [
        {
          "internalType": "uint256",
          "name": "_prescriptionId",
          "type": "uint256"
        },
        {
          "internalType": "string",
          "name": "_dispensedIPFS",
          "type": "string"
        }
      ],
      "name": "dispensePrescription",
      "outputs": [],
      "stateMutability": "nonpayable",
      "type": "function"
    },
    {
      "inputs": [],
      "name": "doctorVerifierListIPFS",
      "outputs": [
        {
          "internalType": "string",
          "name": "",
          "type": "string"
        }
      ],
      "stateMutability": "view",
      "type": "function"
    },
    {
      "inputs": [
        {
          "internalType": "address",
          "name": "",
          "type": "address"
        }
      ],
      "name": "doctors",
      "outputs": [
        {
          "internalType": "bool",
          "name": "exists",
          "type": "bool"
        },
        {
          "internalType": "bool",
          "name": "verified",
          "type": "bool"
        },
        {
          "internalType": "string",
          "name": "ipfsHash",
          "type": "string"
        }
      ],
      "stateMutability": "view",
      "type": "function"
    },
    {
      "inputs": [],
      "name": "getDoctorVerifierList",
      "outputs": [
        {
          "internalType": "string",
          "name": "",
          "type": "string"
        }
      ],
      "stateMutability": "view",
      "type": "function"
    },
    {
      "inputs": [
        {
          "internalType": "string",
          "name": "_patientHash",
          "type": "string"
        }
      ],
      "name": "getPatientPrescriptions",
      "outputs": [
        {
          "internalType": "string[]",
          "name": "",
          "type": "string[]"
        }
      ],
      "stateMutability": "view",
      "type": "function"
    },
    {
      "inputs": [],
      "name": "getPharmacyVerifierList",
      "outputs": [
        {
          "internalType": "string",
          "name": "",
          "type": "string"
        }
      ],
      "stateMutability": "view",
      "type": "function"
    },
    {
      "inputs": [
        {
          "internalType": "uint256",
          "name": "_prescriptionId",
          "type": "uint256"
        }
      ],
      "name": "getPrescription",
      "outputs": [
        {
          "components": [
            {
              "internalType": "address",
              "name": "doctor",
              "type": "address"
            },
            {
              "internalType": "string",
              "name": "patientHash",
              "type": "string"
            },
            {
              "internalType": "string",
              "name": "prescriptionIPFS",
              "type": "string"
            },
            {
              "internalType": "bool",
              "name": "dispensed",
              "type": "bool"
            },
            {
              "internalType": "address",
              "name": "pharmacist",
              "type": "address"
            },
            {
              "internalType": "string",
              "name": "dispensedIPFS",
              "type": "string"
            }
          ],
          "internalType": "struct HealthChain.Prescription",
          "name": "",
          "type": "tuple"
        }
      ],
      "stateMutability": "view",
      "type": "function"
    },
    {
      "inputs": [
        {
          "internalType": "address",
          "name": "_doctor",
          "type": "address"
        }
      ],
      "name": "isDoctorVerified",
      "outputs": [
        {
          "internalType": "bool",
          "name": "",
          "type": "bool"
        }
      ],
      "stateMutability": "view",
      "type": "function"
    },
    {
      "inputs": [
        {
          "internalType": "address",
          "name": "_pharmacist",
          "type": "address"
        }
      ],
      "name": "isPharmacistVerified",
      "outputs": [
        {
          "internalType": "bool",
          "name": "",
          "type": "bool"
        }
      ],
      "stateMutability": "view",
      "type": "function"
    },
    {
      "inputs": [
        {
          "internalType": "string",
          "name": "_patientHash",
          "type": "string"
        },
        {
          "internalType": "string",
          "name": "_prescriptionIPFS",
          "type": "string"
        }
      ],
      "name": "issuePrescription",
      "outputs": [],
      "stateMutability": "nonpayable",
      "type": "function"
    },
    {
      "inputs": [
        {
          "internalType": "string",
          "name": "",
          "type": "string"
        },
        {
          "internalType": "uint256",
          "name": "",
          "type": "uint256"
        }
      ],
      "name": "patientPrescriptions",
      "outputs": [
        {
          "internalType": "string",
          "name": "",
          "type": "string"
        }
      ],
      "stateMutability": "view",
      "type": "function"
    },
    {
      "inputs": [
        {
          "internalType": "address",
          "name": "",
          "type": "address"
        }
      ],
      "name": "pharmacists",
      "outputs": [
        {
          "internalType": "bool",
          "name": "exists",
          "type": "bool"
        },
        {
          "internalType": "bool",
          "name": "verified",
          "type": "bool"
        },
        {
          "internalType": "string",
          "name": "ipfsHash",
          "type": "string"
        }
      ],
      "stateMutability": "view",
      "type": "function"
    },
    {
      "inputs": [],
      "name": "pharmacyVerifierListIPFS",
      "outputs": [
        {
          "internalType": "string",
          "name": "",
          "type": "string"
        }
      ],
      "stateMutability": "view",
      "type": "function"
    },
    {
      "inputs": [],
      "name": "prescriptionCount",
      "outputs": [
        {
          "internalType": "uint256",
          "name": "",
          "type": "uint256"
        }
      ],
      "stateMutability": "view",
      "type": "function"
    },
    {
      "inputs": [
        {
          "internalType": "uint256",
          "name": "",
          "type": "uint256"
        }
      ],
      "name": "prescriptions",
      "outputs": [
        {
          "internalType": "address",
          "name": "doctor",
          "type": "address"
        },
        {
          "internalType": "string",
          "name": "patientHash",
          "type": "string"
        },
        {
          "internalType": "string",
          "name": "prescriptionIPFS",
          "type": "string"
        },
        {
          "internalType": "bool",
          "name": "dispensed",
          "type": "bool"
        },
        {
          "internalType": "address",
          "name": "pharmacist",
          "type": "address"
        },
        {
          "internalType": "string",
          "name": "dispensedIPFS",
          "type": "string"
        }
      ],
      "stateMutability": "view",
      "type": "function"
    },
    {
      "inputs": [
        {
          "internalType": "string",
          "name": "_ipfsHash",
          "type": "string"
        }
      ],
      "name": "registerDoctor",
      "outputs": [
        {
          "components": [
            {
              "internalType": "bool",
              "name": "exists",
              "type": "bool"
            },
            {
              "internalType": "bool",
              "name": "verified",
              "type": "bool"
            },
            {
              "internalType": "address[]",
              "name": "verifier",
              "type": "address[]"
            },
            {
              "internalType": "string",
              "name": "ipfsHash",
              "type": "string"
            }
          ],
          "internalType": "struct HealthChain.Doctor",
          "name": "",
          "type": "tuple"
        }
      ],
      "stateMutability": "nonpayable",
      "type": "function"
    },
    {
      "inputs": [
        {
          "internalType": "string",
          "name": "_ipfsHash",
          "type": "string"
        }
      ],
      "name": "registerPharmacist",
      "outputs": [
        {
          "components": [
            {
              "internalType": "bool",
              "name": "exists",
              "type": "bool"
            },
            {
              "internalType": "bool",
              "name": "verified",
              "type": "bool"
            },
            {
              "internalType": "address[]",
              "name": "verifier",
              "type": "address[]"
            },
            {
              "internalType": "string",
              "name": "ipfsHash",
              "type": "string"
            }
          ],
          "internalType": "struct HealthChain.Pharmacist",
          "name": "",
          "type": "tuple"
        }
      ],
      "stateMutability": "nonpayable",
      "type": "function"
    },
    {
      "inputs": [
        {
          "internalType": "string",
          "name": "_newIPFSHash",
          "type": "string"
        }
      ],
      "name": "updateDoctorVerifierList",
      "outputs": [],
      "stateMutability": "nonpayable",
      "type": "function"
    },
    {
      "inputs": [
        {
          "internalType": "string",
          "name": "_newIPFSHash",
          "type": "string"
        }
      ],
      "name": "updatePharmacyVerifierList",
      "outputs": [],
      "stateMutability": "nonpayable",
      "type": "function"
    },
    {
      "inputs": [
        {
          "internalType": "address",
          "name": "_doctor",
          "type": "address"
        }
      ],
      "name": "verifyDoctor",
      "outputs": [],
      "stateMutability": "nonpayable",
      "type": "function"
    },
    {
      "inputs": [
        {
          "internalType": "address",
          "name": "_pharmacist",
          "type": "address"
        }
      ],
      "name": "verifyPharmacist",
      "outputs": [],
      "stateMutability": "nonpayable",
      "type": "function"
    }
  ],
  "bytecode": "0x6080604052348015600f57600080fd5b50336000806101000a81548173ffffffffffffffffffffffffffffffffffffffff021916908373ffffffffffffffffffffffffffffffffffffffff160217905550613aa58061005f6000396000f3fe608060405234801561001057600080fd5b50600436106101425760003560e01c80637329f460116100b8578063d1a06f461161007c578063d1a06f46146103cc578063d80cb05c146103e8578063ec4cc78c14610404578063eef02c2e14610420578063f851a4401461043e578063ff16007e1461045c57610142565b80637329f460146103145780638f09ab5b14610330578063a9583c2214610360578063b655849814610392578063c8451358146103b057610142565b80632e338def1161010a5780632e338def1461022757806331dfc91b146102575780633c5d5b801461028c578063462c6d13146102aa5780635e10df32146102c65780636f16af10146102e457610142565b80630b13acdf1461014757806312367db01461017757806318a6640c146101a75780631abf575a146101c55780632b72938e146101f7575b600080fd5b610161600480360381019061015c91906127cc565b61048c565b60405161016e9190612814565b60405180910390f35b610191600480360381019061018c91906129ab565b6104e5565b60405161019e9190612a86565b60405180910390f35b6101af6105b4565b6040516101bc9190612a86565b60405180910390f35b6101df60048036038101906101da91906127cc565b610642565b6040516101ee93929190612aa8565b60405180910390f35b610211600480360381019061020c91906127cc565b61070e565b60405161021e9190612814565b60405180910390f35b610241600480360381019061023c9190612ae6565b610767565b60405161024e9190612c3b565b60405180910390f35b610271600480360381019061026c9190612c5d565b61085e565b60405161028396959493929190612c99565b60405180910390f35b610294610a7f565b6040516102a19190612a86565b60405180910390f35b6102c460048036038101906102bf91906127cc565b610b0d565b005b6102ce610f3f565b6040516102db9190612a86565b60405180910390f35b6102fe60048036038101906102f99190612c5d565b610fd1565b60405161030b9190612dc4565b60405180910390f35b61032e60048036038101906103299190612ae6565b61127b565b005b61034a60048036038101906103459190612ae6565b611353565b6040516103579190612eff565b60405180910390f35b61037a600480360381019061037591906127cc565b6116fa565b60405161038993929190612aa8565b60405180910390f35b61039a6117c6565b6040516103a79190612f30565b60405180910390f35b6103ca60048036038101906103c59190612f4b565b6117cc565b005b6103e660048036038101906103e19190612ae6565b611aa3565b005b61040260048036038101906103fd91906127cc565b611b7b565b005b61041e60048036038101906104199190612fc3565b611fac565b005b61042861219a565b6040516104359190612a86565b60405180910390f35b61044661222c565b604051610453919061301f565b60405180910390f35b61047660048036038101906104719190612ae6565b612250565b60405161048391906130a4565b60405180910390f35b6000600160008373ffffffffffffffffffffffffffffffffffffffff1673ffffffffffffffffffffffffffffffffffffffff16815260200190815260200160002060000160019054906101000a900460ff169050919050565b600482805160208101820180518482526020830160208501208183528095505050505050818154811061051757600080fd5b90600052602060002001600091509150508054610533906130f5565b80601f016020809104026020016040519081016040528092919081815260200182805461055f906130f5565b80156105ac5780601f10610581576101008083540402835291602001916105ac565b820191906000526020600020905b81548152906001019060200180831161058f57829003601f168201915b505050505081565b600680546105c1906130f5565b80601f01602080910402602001604051908101604052809291908181526020018280546105ed906130f5565b801561063a5780601f1061060f5761010080835404028352916020019161063a565b820191906000526020600020905b81548152906001019060200180831161061d57829003601f168201915b505050505081565b60026020528060005260406000206000915090508060000160009054906101000a900460ff16908060000160019054906101000a900460ff169080600201805461068b906130f5565b80601f01602080910402602001604051908101604052809291908181526020018280546106b7906130f5565b80156107045780601f106106d957610100808354040283529160200191610704565b820191906000526020600020905b8154815290600101906020018083116106e757829003601f168201915b5050505050905083565b6000600260008373ffffffffffffffffffffffffffffffffffffffff1673ffffffffffffffffffffffffffffffffffffffff16815260200190815260200160002060000160019054906101000a900460ff169050919050565b60606004826040516107799190613162565b9081526020016040518091039020805480602002602001604051908101604052809291908181526020016000905b828210156108535783829060005260206000200180546107c6906130f5565b80601f01602080910402602001604051908101604052809291908181526020018280546107f2906130f5565b801561083f5780601f106108145761010080835404028352916020019161083f565b820191906000526020600020905b81548152906001019060200180831161082257829003601f168201915b5050505050815260200190600101906107a7565b505050509050919050565b60036020528060005260406000206000915090508060000160009054906101000a900473ffffffffffffffffffffffffffffffffffffffff16908060010180546108a7906130f5565b80601f01602080910402602001604051908101604052809291908181526020018280546108d3906130f5565b80156109205780601f106108f557610100808354040283529160200191610920565b820191906000526020600020905b81548152906001019060200180831161090357829003601f168201915b505050505090806002018054610935906130f5565b80601f0160208091040260200160405190810160405280929190818152602001828054610961906130f5565b80156109ae5780601f10610983576101008083540402835291602001916109ae565b820191906000526020600020905b81548152906001019060200180831161099157829003601f168201915b5050505050908060030160009054906101000a900460ff16908060030160019054906101000a900473ffffffffffffffffffffffffffffffffffffffff16908060040180546109fc906130f5565b80601f0160208091040260200160405190810160405280929190818152602001828054610a28906130f5565b8015610a755780601f10610a4a57610100808354040283529160200191610a75565b820191906000526020600020905b815481529060010190602001808311610a5857829003601f168201915b5050505050905086565b60078054610a8c906130f5565b80601f0160208091040260200160405190810160405280929190818152602001828054610ab8906130f5565b8015610b055780601f10610ada57610100808354040283529160200191610b05565b820191906000526020600020905b815481529060010190602001808311610ae857829003601f168201915b505050505081565b600260008273ffffffffffffffffffffffffffffffffffffffff1673ffffffffffffffffffffffffffffffffffffffff16815260200190815260200160002060000160009054906101000a900460ff16610b9c576040517f08c379a0000000000000000000000000000000000000000000000000000000008152600401610b93906131c5565b60405180910390fd5b600260008273ffffffffffffffffffffffffffffffffffffffff1673ffffffffffffffffffffffffffffffffffffffff16815260200190815260200160002060000160019054906101000a900460ff1615610c2c576040517f08c379a0000000000000000000000000000000000000000000000000000000008152600401610c2390613231565b60405180910390fd5b3373ffffffffffffffffffffffffffffffffffffffff168173ffffffffffffffffffffffffffffffffffffffff1603610c9a576040517f08c379a0000000000000000000000000000000000000000000000000000000008152600401610c919061329d565b60405180910390fd5b60005b600260008373ffffffffffffffffffffffffffffffffffffffff1673ffffffffffffffffffffffffffffffffffffffff16815260200190815260200160002060010180549050811015610de3573373ffffffffffffffffffffffffffffffffffffffff16600260008473ffffffffffffffffffffffffffffffffffffffff1673ffffffffffffffffffffffffffffffffffffffff1681526020019081526020016000206001018281548110610d5557610d546132bd565b5b9060005260206000200160009054906101000a900473ffffffffffffffffffffffffffffffffffffffff1673ffffffffffffffffffffffffffffffffffffffff1603610dd6576040517f08c379a0000000000000000000000000000000000000000000000000000000008152600401610dcd9061335e565b60405180910390fd5b8080600101915050610c9d565b506001600260008373ffffffffffffffffffffffffffffffffffffffff1673ffffffffffffffffffffffffffffffffffffffff16815260200190815260200160002060000160016101000a81548160ff021916908315150217905550600260008273ffffffffffffffffffffffffffffffffffffffff1673ffffffffffffffffffffffffffffffffffffffff168152602001908152602001600020600101339080600181540180825580915050600190039060005260206000200160009091909190916101000a81548173ffffffffffffffffffffffffffffffffffffffff021916908373ffffffffffffffffffffffffffffffffffffffff1602179055503373ffffffffffffffffffffffffffffffffffffffff168173ffffffffffffffffffffffffffffffffffffffff167f19dcb63de6975856487257e5e0fc6a95ec978af3636fd966f4d4aa4347ac89c760405160405180910390a350565b606060068054610f4e906130f5565b80601f0160208091040260200160405190810160405280929190818152602001828054610f7a906130f5565b8015610fc75780601f10610f9c57610100808354040283529160200191610fc7565b820191906000526020600020905b815481529060010190602001808311610faa57829003601f168201915b5050505050905090565b610fd96125f7565b600360008381526020019081526020016000206040518060c00160405290816000820160009054906101000a900473ffffffffffffffffffffffffffffffffffffffff1673ffffffffffffffffffffffffffffffffffffffff1673ffffffffffffffffffffffffffffffffffffffff16815260200160018201805461105d906130f5565b80601f0160208091040260200160405190810160405280929190818152602001828054611089906130f5565b80156110d65780601f106110ab576101008083540402835291602001916110d6565b820191906000526020600020905b8154815290600101906020018083116110b957829003601f168201915b505050505081526020016002820180546110ef906130f5565b80601f016020809104026020016040519081016040528092919081815260200182805461111b906130f5565b80156111685780601f1061113d57610100808354040283529160200191611168565b820191906000526020600020905b81548152906001019060200180831161114b57829003601f168201915b505050505081526020016003820160009054906101000a900460ff161515151581526020016003820160019054906101000a900473ffffffffffffffffffffffffffffffffffffffff1673ffffffffffffffffffffffffffffffffffffffff1673ffffffffffffffffffffffffffffffffffffffff1681526020016004820180546111f2906130f5565b80601f016020809104026020016040519081016040528092919081815260200182805461121e906130f5565b801561126b5780601f106112405761010080835404028352916020019161126b565b820191906000526020600020905b81548152906001019060200180831161124e57829003601f168201915b5050505050815250509050919050565b60008054906101000a900473ffffffffffffffffffffffffffffffffffffffff1673ffffffffffffffffffffffffffffffffffffffff163373ffffffffffffffffffffffffffffffffffffffff1614611309576040517f08c379a0000000000000000000000000000000000000000000000000000000008152600401611300906133f0565b60405180910390fd5b806007908161131891906135bc565b507f2727ce149c4fd736e091907e1828de3d2f79e9e4cea9519480fd697a24e7cf968160405161134891906136da565b60405180910390a150565b61135b61265b565b600160003373ffffffffffffffffffffffffffffffffffffffff1673ffffffffffffffffffffffffffffffffffffffff16815260200190815260200160002060000160009054906101000a900460ff16156113eb576040517f08c379a00000000000000000000000000000000000000000000000000000000081526004016113e29061375b565b60405180910390fd5b6040518060800160405280600115158152602001600015158152602001600067ffffffffffffffff8111156114235761142261284a565b5b6040519080825280602002602001820160405280156114515781602001602082028036833780820191505090505b50815260200183815250600160003373ffffffffffffffffffffffffffffffffffffffff1673ffffffffffffffffffffffffffffffffffffffff16815260200190815260200160002060008201518160000160006101000a81548160ff02191690831515021790555060208201518160000160016101000a81548160ff02191690831515021790555060408201518160010190805190602001906114f6929190612687565b50606082015181600201908161150c91906135bc565b509050503373ffffffffffffffffffffffffffffffffffffffff167f2dc8105a7545248d0e354c4c6b02fb583071cc719fb4bef1ca74d72d475570bc60405160405180910390a2600160003373ffffffffffffffffffffffffffffffffffffffff1673ffffffffffffffffffffffffffffffffffffffff1681526020019081526020016000206040518060800160405290816000820160009054906101000a900460ff161515151581526020016000820160019054906101000a900460ff161515151581526020016001820180548060200260200160405190810160405280929190818152602001828054801561165857602002820191906000526020600020905b8160009054906101000a900473ffffffffffffffffffffffffffffffffffffffff1673ffffffffffffffffffffffffffffffffffffffff168152602001906001019080831161160e575b50505050508152602001600282018054611671906130f5565b80601f016020809104026020016040519081016040528092919081815260200182805461169d906130f5565b80156116ea5780601f106116bf576101008083540402835291602001916116ea565b820191906000526020600020905b8154815290600101906020018083116116cd57829003601f168201915b5050505050815250509050919050565b60016020528060005260406000206000915090508060000160009054906101000a900460ff16908060000160019054906101000a900460ff1690806002018054611743906130f5565b80601f016020809104026020016040519081016040528092919081815260200182805461176f906130f5565b80156117bc5780601f10611791576101008083540402835291602001916117bc565b820191906000526020600020905b81548152906001019060200180831161179f57829003601f168201915b5050505050905083565b60055481565b600160003373ffffffffffffffffffffffffffffffffffffffff1673ffffffffffffffffffffffffffffffffffffffff16815260200190815260200160002060000160019054906101000a900460ff1661185b576040517f08c379a0000000000000000000000000000000000000000000000000000000008152600401611852906137ed565b60405180910390fd5b6005600081548092919061186e9061383c565b91905055506040518060c001604052803373ffffffffffffffffffffffffffffffffffffffff168152602001838152602001828152602001600015158152602001600073ffffffffffffffffffffffffffffffffffffffff1681526020016040518060200160405280600081525081525060036000600554815260200190815260200160002060008201518160000160006101000a81548173ffffffffffffffffffffffffffffffffffffffff021916908373ffffffffffffffffffffffffffffffffffffffff160217905550602082015181600101908161195091906135bc565b50604082015181600201908161196691906135bc565b5060608201518160030160006101000a81548160ff02191690831515021790555060808201518160030160016101000a81548173ffffffffffffffffffffffffffffffffffffffff021916908373ffffffffffffffffffffffffffffffffffffffff16021790555060a08201518160040190816119e391906135bc565b509050506004826040516119f79190613162565b908152602001604051809103902081908060018154018082558091505060019003906000526020600020016000909190919091509081611a3791906135bc565b5081604051611a469190613162565b60405180910390203373ffffffffffffffffffffffffffffffffffffffff166005547f438ffc49c7517b5a34de8bdd2e07f9806928049e479da688312c0c9c350b84c384604051611a979190612a86565b60405180910390a45050565b60008054906101000a900473ffffffffffffffffffffffffffffffffffffffff1673ffffffffffffffffffffffffffffffffffffffff163373ffffffffffffffffffffffffffffffffffffffff1614611b31576040517f08c379a0000000000000000000000000000000000000000000000000000000008152600401611b28906133f0565b60405180910390fd5b8060069081611b4091906135bc565b507f2727ce149c4fd736e091907e1828de3d2f79e9e4cea9519480fd697a24e7cf9681604051611b7091906138d0565b60405180910390a150565b600160008273ffffffffffffffffffffffffffffffffffffffff1673ffffffffffffffffffffffffffffffffffffffff16815260200190815260200160002060000160009054906101000a900460ff16611c0a576040517f08c379a0000000000000000000000000000000000000000000000000000000008152600401611c0190613951565b60405180910390fd5b600160008273ffffffffffffffffffffffffffffffffffffffff1673ffffffffffffffffffffffffffffffffffffffff16815260200190815260200160002060000160019054906101000a900460ff1615611c9a576040517f08c379a0000000000000000000000000000000000000000000000000000000008152600401611c9190613231565b60405180910390fd5b3373ffffffffffffffffffffffffffffffffffffffff168173ffffffffffffffffffffffffffffffffffffffff1603611d08576040517f08c379a0000000000000000000000000000000000000000000000000000000008152600401611cff9061329d565b60405180910390fd5b60005b600160008373ffffffffffffffffffffffffffffffffffffffff1673ffffffffffffffffffffffffffffffffffffffff16815260200190815260200160002060010180549050811015611e51573373ffffffffffffffffffffffffffffffffffffffff16600160008473ffffffffffffffffffffffffffffffffffffffff1673ffffffffffffffffffffffffffffffffffffffff1681526020019081526020016000206001018281548110611dc357611dc26132bd565b5b9060005260206000200160009054906101000a900473ffffffffffffffffffffffffffffffffffffffff1673ffffffffffffffffffffffffffffffffffffffff1603611e44576040517f08c379a0000000000000000000000000000000000000000000000000000000008152600401611e3b9061335e565b60405180910390fd5b8080600101915050611d0b565b5060018060008373ffffffffffffffffffffffffffffffffffffffff1673ffffffffffffffffffffffffffffffffffffffff16815260200190815260200160002060000160016101000a81548160ff021916908315150217905550600160008273ffffffffffffffffffffffffffffffffffffffff1673ffffffffffffffffffffffffffffffffffffffff168152602001908152602001600020600101339080600181540180825580915050600190039060005260206000200160009091909190916101000a81548173ffffffffffffffffffffffffffffffffffffffff021916908373ffffffffffffffffffffffffffffffffffffffff1602179055503373ffffffffffffffffffffffffffffffffffffffff168173ffffffffffffffffffffffffffffffffffffffff167fd5ee64cc05b0be498b4d26e3260e3df119d9bc6c6bac2e8a912351bbf36ee15160405160405180910390a350565b6003600083815260200190815260200160002060030160009054906101000a900460ff1615612010576040517f08c379a0000000000000000000000000000000000000000000000000000000008152600401612007906139bd565b60405180910390fd5b600260003373ffffffffffffffffffffffffffffffffffffffff1673ffffffffffffffffffffffffffffffffffffffff16815260200190815260200160002060000160019054906101000a900460ff1661209f576040517f08c379a000000000000000000000000000000000000000000000000000000000815260040161209690613a4f565b60405180910390fd5b60016003600084815260200190815260200160002060030160006101000a81548160ff021916908315150217905550336003600084815260200190815260200160002060030160016101000a81548173ffffffffffffffffffffffffffffffffffffffff021916908373ffffffffffffffffffffffffffffffffffffffff1602179055508060036000848152602001908152602001600020600401908161214691906135bc565b503373ffffffffffffffffffffffffffffffffffffffff16827f70c32b7c89ed6f3c7d3a36625bcf1a369318b835b6994eed1cd4a8df117a9de78360405161218e9190612a86565b60405180910390a35050565b6060600780546121a9906130f5565b80601f01602080910402602001604051908101604052809291908181526020018280546121d5906130f5565b80156122225780601f106121f757610100808354040283529160200191612222565b820191906000526020600020905b81548152906001019060200180831161220557829003601f168201915b5050505050905090565b60008054906101000a900473ffffffffffffffffffffffffffffffffffffffff1681565b612258612711565b600260003373ffffffffffffffffffffffffffffffffffffffff1673ffffffffffffffffffffffffffffffffffffffff16815260200190815260200160002060000160009054906101000a900460ff16156122e8576040517f08c379a00000000000000000000000000000000000000000000000000000000081526004016122df9061375b565b60405180910390fd5b6040518060800160405280600115158152602001600015158152602001600067ffffffffffffffff8111156123205761231f61284a565b5b60405190808252806020026020018201604052801561234e5781602001602082028036833780820191505090505b50815260200183815250600260003373ffffffffffffffffffffffffffffffffffffffff1673ffffffffffffffffffffffffffffffffffffffff16815260200190815260200160002060008201518160000160006101000a81548160ff02191690831515021790555060208201518160000160016101000a81548160ff02191690831515021790555060408201518160010190805190602001906123f3929190612687565b50606082015181600201908161240991906135bc565b509050503373ffffffffffffffffffffffffffffffffffffffff167f6c217f4bf5d538fdbcbfa71cabb51e380ac4b3d37b09b49a5e75b4799312206c60405160405180910390a2600260003373ffffffffffffffffffffffffffffffffffffffff1673ffffffffffffffffffffffffffffffffffffffff1681526020019081526020016000206040518060800160405290816000820160009054906101000a900460ff161515151581526020016000820160019054906101000a900460ff161515151581526020016001820180548060200260200160405190810160405280929190818152602001828054801561255557602002820191906000526020600020905b8160009054906101000a900473ffffffffffffffffffffffffffffffffffffffff1673ffffffffffffffffffffffffffffffffffffffff168152602001906001019080831161250b575b5050505050815260200160028201805461256e906130f5565b80601f016020809104026020016040519081016040528092919081815260200182805461259a906130f5565b80156125e75780601f106125bc576101008083540402835291602001916125e7565b820191906000526020600020905b8154815290600101906020018083116125ca57829003601f168201915b5050505050815250509050919050565b6040518060c00160405280600073ffffffffffffffffffffffffffffffffffffffff1681526020016060815260200160608152602001600015158152602001600073ffffffffffffffffffffffffffffffffffffffff168152602001606081525090565b604051806080016040528060001515815260200160001515815260200160608152602001606081525090565b828054828255906000526020600020908101928215612700579160200282015b828111156126ff5782518260006101000a81548173ffffffffffffffffffffffffffffffffffffffff021916908373ffffffffffffffffffffffffffffffffffffffff160217905550916020019190600101906126a7565b5b50905061270d919061273d565b5090565b604051806080016040528060001515815260200160001515815260200160608152602001606081525090565b5b8082111561275657600081600090555060010161273e565b5090565b6000604051905090565b600080fd5b600080fd5b600073ffffffffffffffffffffffffffffffffffffffff82169050919050565b60006127998261276e565b9050919050565b6127a98161278e565b81146127b457600080fd5b50565b6000813590506127c6816127a0565b92915050565b6000602082840312156127e2576127e1612764565b5b60006127f0848285016127b7565b91505092915050565b60008115159050919050565b61280e816127f9565b82525050565b60006020820190506128296000830184612805565b92915050565b600080fd5b600080fd5b6000601f19601f8301169050919050565b7f4e487b7100000000000000000000000000000000000000000000000000000000600052604160045260246000fd5b61288282612839565b810181811067ffffffffffffffff821117156128a1576128a061284a565b5b80604052505050565b60006128b461275a565b90506128c08282612879565b919050565b600067ffffffffffffffff8211156128e0576128df61284a565b5b6128e982612839565b9050602081019050919050565b82818337600083830152505050565b6000612918612913846128c5565b6128aa565b90508281526020810184848401111561293457612933612834565b5b61293f8482856128f6565b509392505050565b600082601f83011261295c5761295b61282f565b5b813561296c848260208601612905565b91505092915050565b6000819050919050565b61298881612975565b811461299357600080fd5b50565b6000813590506129a58161297f565b92915050565b600080604083850312156129c2576129c1612764565b5b600083013567ffffffffffffffff8111156129e0576129df612769565b5b6129ec85828601612947565b92505060206129fd85828601612996565b9150509250929050565b600081519050919050565b600082825260208201905092915050565b60005b83811015612a41578082015181840152602081019050612a26565b60008484015250505050565b6000612a5882612a07565b612a628185612a12565b9350612a72818560208601612a23565b612a7b81612839565b840191505092915050565b60006020820190508181036000830152612aa08184612a4d565b905092915050565b6000606082019050612abd6000830186612805565b612aca6020830185612805565b8181036040830152612adc8184612a4d565b9050949350505050565b600060208284031215612afc57612afb612764565b5b600082013567ffffffffffffffff811115612b1a57612b19612769565b5b612b2684828501612947565b91505092915050565b600081519050919050565b600082825260208201905092915050565b6000819050602082019050919050565b600082825260208201905092915050565b6000612b7782612a07565b612b818185612b5b565b9350612b91818560208601612a23565b612b9a81612839565b840191505092915050565b6000612bb18383612b6c565b905092915050565b6000602082019050919050565b6000612bd182612b2f565b612bdb8185612b3a565b935083602082028501612bed85612b4b565b8060005b85811015612c295784840389528151612c0a8582612ba5565b9450612c1583612bb9565b925060208a01995050600181019050612bf1565b50829750879550505050505092915050565b60006020820190508181036000830152612c558184612bc6565b905092915050565b600060208284031215612c7357612c72612764565b5b6000612c8184828501612996565b91505092915050565b612c938161278e565b82525050565b600060c082019050612cae6000830189612c8a565b8181036020830152612cc08188612a4d565b90508181036040830152612cd48187612a4d565b9050612ce36060830186612805565b612cf06080830185612c8a565b81810360a0830152612d028184612a4d565b9050979650505050505050565b612d188161278e565b82525050565b612d27816127f9565b82525050565b600060c083016000830151612d456000860182612d0f565b5060208301518482036020860152612d5d8282612b6c565b91505060408301518482036040860152612d778282612b6c565b9150506060830151612d8c6060860182612d1e565b506080830151612d9f6080860182612d0f565b5060a083015184820360a0860152612db78282612b6c565b9150508091505092915050565b60006020820190508181036000830152612dde8184612d2d565b905092915050565b600081519050919050565b600082825260208201905092915050565b6000819050602082019050919050565b6000612e1e8383612d0f565b60208301905092915050565b6000602082019050919050565b6000612e4282612de6565b612e4c8185612df1565b9350612e5783612e02565b8060005b83811015612e88578151612e6f8882612e12565b9750612e7a83612e2a565b925050600181019050612e5b565b5085935050505092915050565b6000608083016000830151612ead6000860182612d1e565b506020830151612ec06020860182612d1e565b5060408301518482036040860152612ed88282612e37565b91505060608301518482036060860152612ef28282612b6c565b9150508091505092915050565b60006020820190508181036000830152612f198184612e95565b905092915050565b612f2a81612975565b82525050565b6000602082019050612f456000830184612f21565b92915050565b60008060408385031215612f6257612f61612764565b5b600083013567ffffffffffffffff811115612f8057612f7f612769565b5b612f8c85828601612947565b925050602083013567ffffffffffffffff811115612fad57612fac612769565b5b612fb985828601612947565b9150509250929050565b60008060408385031215612fda57612fd9612764565b5b6000612fe885828601612996565b925050602083013567ffffffffffffffff81111561300957613008612769565b5b61301585828601612947565b9150509250929050565b60006020820190506130346000830184612c8a565b92915050565b60006080830160008301516130526000860182612d1e565b5060208301516130656020860182612d1e565b506040830151848203604086015261307d8282612e37565b915050606083015184820360608601526130978282612b6c565b9150508091505092915050565b600060208201905081810360008301526130be818461303a565b905092915050565b7f4e487b7100000000000000000000000000000000000000000000000000000000600052602260045260246000fd5b6000600282049050600182168061310d57607f821691505b6020821081036131205761311f6130c6565b5b50919050565b600081905092915050565b600061313c82612a07565b6131468185613126565b9350613156818560208601612a23565b80840191505092915050565b600061316e8284613131565b915081905092915050565b7f506861726d6163697374206e6f74207265676973746572656400000000000000600082015250565b60006131af601983612a12565b91506131ba82613179565b602082019050919050565b600060208201905081810360008301526131de816131a2565b9050919050565b7f416c726561647920766572696669656400000000000000000000000000000000600082015250565b600061321b601083612a12565b9150613226826131e5565b602082019050919050565b6000602082019050818103600083015261324a8161320e565b9050919050565b7f43616e6e6f74207665726966792073656c660000000000000000000000000000600082015250565b6000613287601283612a12565b915061329282613251565b602082019050919050565b600060208201905081810360008301526132b68161327a565b9050919050565b7f4e487b7100000000000000000000000000000000000000000000000000000000600052603260045260246000fd5b7f416c72656164792076657269666965642062792074686973207665726966696560008201527f7200000000000000000000000000000000000000000000000000000000000000602082015250565b6000613348602183612a12565b9150613353826132ec565b604082019050919050565b600060208201905081810360008301526133778161333b565b9050919050565b7f4f6e6c79206f776e65722063616e2063616c6c20746869732066756e6374696f60008201527f6e00000000000000000000000000000000000000000000000000000000000000602082015250565b60006133da602183612a12565b91506133e58261337e565b604082019050919050565b60006020820190508181036000830152613409816133cd565b9050919050565b60008190508160005260206000209050919050565b60006020601f8301049050919050565b600082821b905092915050565b6000600883026134727fffffffffffffffffffffffffffffffffffffffffffffffffffffffffffffffff82613435565b61347c8683613435565b95508019841693508086168417925050509392505050565b6000819050919050565b60006134b96134b46134af84612975565b613494565b612975565b9050919050565b6000819050919050565b6134d38361349e565b6134e76134df826134c0565b848454613442565b825550505050565b600090565b6134fc6134ef565b6135078184846134ca565b505050565b5b8181101561352b576135206000826134f4565b60018101905061350d565b5050565b601f8211156135705761354181613410565b61354a84613425565b81016020851015613559578190505b61356d61356585613425565b83018261350c565b50505b505050565b600082821c905092915050565b600061359360001984600802613575565b1980831691505092915050565b60006135ac8383613582565b9150826002028217905092915050565b6135c582612a07565b67ffffffffffffffff8111156135de576135dd61284a565b5b6135e882546130f5565b6135f382828561352f565b600060209050601f8311600181146136265760008415613614578287015190505b61361e85826135a0565b865550613686565b601f19841661363486613410565b60005b8281101561365c57848901518255600182019150602085019450602081019050613637565b868310156136795784890151613675601f891682613582565b8355505b6001600288020188555050505b505050505050565b7f506861726d61637956657269666965724c697374000000000000000000000000600082015250565b60006136c4601483612a12565b91506136cf8261368e565b602082019050919050565b600060408201905081810360008301526136f3816136b7565b905081810360208301526137078184612a4d565b905092915050565b7f416c726561647920726567697374657265640000000000000000000000000000600082015250565b6000613745601283612a12565b91506137508261370f565b602082019050919050565b6000602082019050818103600083015261377481613738565b9050919050565b7f4f6e6c7920766572696669656420646f63746f72732063616e2069737375652060008201527f707265736372697074696f6e7300000000000000000000000000000000000000602082015250565b60006137d7602d83612a12565b91506137e28261377b565b604082019050919050565b60006020820190508181036000830152613806816137ca565b9050919050565b7f4e487b7100000000000000000000000000000000000000000000000000000000600052601160045260246000fd5b600061384782612975565b91507fffffffffffffffffffffffffffffffffffffffffffffffffffffffffffffffff82036138795761387861380d565b5b600182019050919050565b7f446f63746f7256657269666965724c6973740000000000000000000000000000600082015250565b60006138ba601283612a12565b91506138c582613884565b602082019050919050565b600060408201905081810360008301526138e9816138ad565b905081810360208301526138fd8184612a4d565b905092915050565b7f446f63746f72206e6f7420726567697374657265640000000000000000000000600082015250565b600061393b601583612a12565b915061394682613905565b602082019050919050565b6000602082019050818103600083015261396a8161392e565b9050919050565b7f507265736372697074696f6e20616c72656164792064697370656e7365640000600082015250565b60006139a7601e83612a12565b91506139b282613971565b602082019050919050565b600060208201905081810360008301526139d68161399a565b9050919050565b7f4f6e6c7920766572696669656420706861726d6163697374732063616e20646960008201527f7370656e736520707265736372697074696f6e73000000000000000000000000602082015250565b6000613a39603483612a12565b9150613a44826139dd565b604082019050919050565b60006020820190508181036000830152613a6881613a2c565b905091905056fea26469706673582212207f80bc9434a80b50c685e3b7d6e7d13897550cb7611ea073dba1ea57e41e2d7664736f6c634300081c0033",
  "linkReferences": {},
  "deployedLinkReferences": {}
}