{
  "_format": "hh-sol-artifact-1",
  "contractName": "HealthChain",
  "sourceName": "contracts/HealthChain.sol",
  "abi": [
    {
      "inputs": [
        {
          "internalType": "string",
          "name": "_initialDoctorVerifierListIPFS",
          "type": "string"
        },
        {
          "internalType": "string",
          "name": "_initialPharmacyVerifierListIPFS",
          "type": "string"
        }
      ],
      "stateMutability": "nonpayable",
      "type": "constructor"
    },
    {
      "anonymous": false,
      "inputs": [
        {
          "indexed": true,
          "internalType": "address",
          "name": "doctor",
          "type": "address"
        }
      ],
      "name": "DoctorRegistered",
      "type": "event"
    },
    {
      "anonymous": false,
      "inputs": [
        {
          "indexed": true,
          "internalType": "address",
          "name": "doctor",
          "type": "address"
        },
        {
          "indexed": true,
          "internalType": "address",
          "name": "verifier",
          "type": "address"
        }
      ],
      "name": "DoctorVerified",
      "type": "event"
    },
    {
      "anonymous": false,
      "inputs": [
        {
          "indexed": true,
          "internalType": "address",
          "name": "pharmacist",
          "type": "address"
        }
      ],
      "name": "PharmacistRegistered",
      "type": "event"
    },
    {
      "anonymous": false,
      "inputs": [
        {
          "indexed": true,
          "internalType": "address",
          "name": "pharmacist",
          "type": "address"
        },
        {
          "indexed": true,
          "internalType": "address",
          "name": "verifier",
          "type": "address"
        }
      ],
      "name": "PharmacistVerified",
      "type": "event"
    },
    {
      "anonymous": false,
      "inputs": [
        {
          "indexed": true,
          "internalType": "uint256",
          "name": "prescriptionId",
          "type": "uint256"
        },
        {
          "indexed": true,
          "internalType": "address",
          "name": "pharmacist",
          "type": "address"
        },
        {
          "indexed": false,
          "internalType": "string",
          "name": "ipfsHash",
          "type": "string"
        }
      ],
      "name": "PrescriptionDispensed",
      "type": "event"
    },
    {
      "anonymous": false,
      "inputs": [
        {
          "indexed": true,
          "internalType": "uint256",
          "name": "prescriptionId",
          "type": "uint256"
        },
        {
          "indexed": true,
          "internalType": "address",
          "name": "doctor",
          "type": "address"
        },
        {
          "indexed": true,
          "internalType": "string",
          "name": "patientHash",
          "type": "string"
        },
        {
          "indexed": false,
          "internalType": "string",
          "name": "ipfsHash",
          "type": "string"
        }
      ],
      "name": "PrescriptionIssued",
      "type": "event"
    },
    {
      "anonymous": false,
      "inputs": [
        {
          "indexed": false,
          "internalType": "string",
          "name": "verifierType",
          "type": "string"
        },
        {
          "indexed": false,
          "internalType": "string",
          "name": "newIPFSHash",
          "type": "string"
        }
      ],
      "name": "VerifierListUpdated",
      "type": "event"
    },
    {
      "inputs": [],
      "name": "admin",
      "outputs": [
        {
          "internalType": "address",
          "name": "",
          "type": "address"
        }
      ],
      "stateMutability": "view",
      "type": "function"
    },
    {
      "inputs": [
        {
          "internalType": "uint256",
          "name": "_prescriptionId",
          "type": "uint256"
        },
        {
          "internalType": "string",
          "name": "_dispensedIPFS",
          "type": "string"
        }
      ],
      "name": "dispensePrescription",
      "outputs": [],
      "stateMutability": "nonpayable",
      "type": "function"
    },
    {
      "inputs": [],
      "name": "doctorVerifierListIPFS",
      "outputs": [
        {
          "internalType": "string",
          "name": "",
          "type": "string"
        }
      ],
      "stateMutability": "view",
      "type": "function"
    },
    {
      "inputs": [
        {
          "internalType": "address",
          "name": "",
          "type": "address"
        }
      ],
      "name": "doctors",
      "outputs": [
        {
          "internalType": "bool",
          "name": "exists",
          "type": "bool"
        },
        {
          "internalType": "bool",
          "name": "verified",
          "type": "bool"
        },
        {
          "internalType": "string",
          "name": "ipfsHash",
          "type": "string"
        }
      ],
      "stateMutability": "view",
      "type": "function"
    },
    {
      "inputs": [],
      "name": "getDoctorVerifierList",
      "outputs": [
        {
          "internalType": "string",
          "name": "",
          "type": "string"
        }
      ],
      "stateMutability": "view",
      "type": "function"
    },
    {
      "inputs": [],
      "name": "getPharmacyVerifierList",
      "outputs": [
        {
          "internalType": "string",
          "name": "",
          "type": "string"
        }
      ],
      "stateMutability": "view",
      "type": "function"
    },
    {
      "inputs": [
        {
          "internalType": "uint256",
          "name": "_prescriptionId",
          "type": "uint256"
        }
      ],
      "name": "getPrescription",
      "outputs": [
        {
          "components": [
            {
              "internalType": "address",
              "name": "doctor",
              "type": "address"
            },
            {
              "internalType": "string",
              "name": "patientHash",
              "type": "string"
            },
            {
              "internalType": "string",
              "name": "prescriptionIPFS",
              "type": "string"
            },
            {
              "internalType": "bool",
              "name": "dispensed",
              "type": "bool"
            },
            {
              "internalType": "address",
              "name": "pharmacist",
              "type": "address"
            },
            {
              "internalType": "string",
              "name": "dispensedIPFS",
              "type": "string"
            }
          ],
          "internalType": "struct HealthChain.Prescription",
          "name": "",
          "type": "tuple"
        }
      ],
      "stateMutability": "view",
      "type": "function"
    },
    {
      "inputs": [
        {
          "internalType": "address",
          "name": "_doctor",
          "type": "address"
        }
      ],
      "name": "isDoctorVerified",
      "outputs": [
        {
          "internalType": "bool",
          "name": "",
          "type": "bool"
        }
      ],
      "stateMutability": "view",
      "type": "function"
    },
    {
      "inputs": [
        {
          "internalType": "address",
          "name": "_pharmacist",
          "type": "address"
        }
      ],
      "name": "isPharmacistVerified",
      "outputs": [
        {
          "internalType": "bool",
          "name": "",
          "type": "bool"
        }
      ],
      "stateMutability": "view",
      "type": "function"
    },
    {
      "inputs": [
        {
          "internalType": "string",
          "name": "_patientHash",
          "type": "string"
        },
        {
          "internalType": "string",
          "name": "_prescriptionIPFS",
          "type": "string"
        }
      ],
      "name": "issuePrescription",
      "outputs": [
        {
          "internalType": "uint256",
          "name": "",
          "type": "uint256"
        }
      ],
      "stateMutability": "nonpayable",
      "type": "function"
    },
    {
      "inputs": [
        {
          "internalType": "string",
          "name": "",
          "type": "string"
        },
        {
          "internalType": "uint256",
          "name": "",
          "type": "uint256"
        }
      ],
      "name": "patientPrescriptions",
      "outputs": [
        {
          "internalType": "string",
          "name": "",
          "type": "string"
        }
      ],
      "stateMutability": "view",
      "type": "function"
    },
    {
      "inputs": [
        {
          "internalType": "address",
          "name": "",
          "type": "address"
        }
      ],
      "name": "pharmacists",
      "outputs": [
        {
          "internalType": "bool",
          "name": "exists",
          "type": "bool"
        },
        {
          "internalType": "bool",
          "name": "verified",
          "type": "bool"
        },
        {
          "internalType": "string",
          "name": "ipfsHash",
          "type": "string"
        }
      ],
      "stateMutability": "view",
      "type": "function"
    },
    {
      "inputs": [],
      "name": "pharmacyVerifierListIPFS",
      "outputs": [
        {
          "internalType": "string",
          "name": "",
          "type": "string"
        }
      ],
      "stateMutability": "view",
      "type": "function"
    },
    {
      "inputs": [],
      "name": "prescriptionCount",
      "outputs": [
        {
          "internalType": "uint256",
          "name": "",
          "type": "uint256"
        }
      ],
      "stateMutability": "view",
      "type": "function"
    },
    {
      "inputs": [
        {
          "internalType": "uint256",
          "name": "",
          "type": "uint256"
        }
      ],
      "name": "prescriptions",
      "outputs": [
        {
          "internalType": "address",
          "name": "doctor",
          "type": "address"
        },
        {
          "internalType": "string",
          "name": "patientHash",
          "type": "string"
        },
        {
          "internalType": "string",
          "name": "prescriptionIPFS",
          "type": "string"
        },
        {
          "internalType": "bool",
          "name": "dispensed",
          "type": "bool"
        },
        {
          "internalType": "address",
          "name": "pharmacist",
          "type": "address"
        },
        {
          "internalType": "string",
          "name": "dispensedIPFS",
          "type": "string"
        }
      ],
      "stateMutability": "view",
      "type": "function"
    },
    {
      "inputs": [
        {
          "internalType": "string",
          "name": "_ipfsHash",
          "type": "string"
        }
      ],
      "name": "registerDoctor",
      "outputs": [
        {
          "components": [
            {
              "internalType": "bool",
              "name": "exists",
              "type": "bool"
            },
            {
              "internalType": "bool",
              "name": "verified",
              "type": "bool"
            },
            {
              "internalType": "address[]",
              "name": "verifier",
              "type": "address[]"
            },
            {
              "internalType": "string",
              "name": "ipfsHash",
              "type": "string"
            }
          ],
          "internalType": "struct HealthChain.Doctor",
          "name": "",
          "type": "tuple"
        }
      ],
      "stateMutability": "nonpayable",
      "type": "function"
    },
    {
      "inputs": [
        {
          "internalType": "string",
          "name": "_ipfsHash",
          "type": "string"
        }
      ],
      "name": "registerPharmacist",
      "outputs": [
        {
          "components": [
            {
              "internalType": "bool",
              "name": "exists",
              "type": "bool"
            },
            {
              "internalType": "bool",
              "name": "verified",
              "type": "bool"
            },
            {
              "internalType": "address[]",
              "name": "verifier",
              "type": "address[]"
            },
            {
              "internalType": "string",
              "name": "ipfsHash",
              "type": "string"
            }
          ],
          "internalType": "struct HealthChain.Pharmacist",
          "name": "",
          "type": "tuple"
        }
      ],
      "stateMutability": "nonpayable",
      "type": "function"
    },
    {
      "inputs": [
        {
          "internalType": "string",
          "name": "_newIPFSHash",
          "type": "string"
        }
      ],
      "name": "updateDoctorVerifierList",
      "outputs": [],
      "stateMutability": "nonpayable",
      "type": "function"
    },
    {
      "inputs": [
        {
          "internalType": "string",
          "name": "_newIPFSHash",
          "type": "string"
        }
      ],
      "name": "updatePharmacyVerifierList",
      "outputs": [],
      "stateMutability": "nonpayable",
      "type": "function"
    },
    {
      "inputs": [
        {
          "internalType": "address",
          "name": "_doctor",
          "type": "address"
        }
      ],
      "name": "verifyDoctor",
      "outputs": [],
      "stateMutability": "nonpayable",
      "type": "function"
    },
    {
      "inputs": [
        {
          "internalType": "address",
          "name": "_pharmacist",
          "type": "address"
        }
      ],
      "name": "verifyPharmacist",
      "outputs": [],
      "stateMutability": "nonpayable",
      "type": "function"
    }
  ],
  "bytecode": "0x608060405234801561001057600080fd5b50604051613e34380380613e348339818101604052810190610032919061020e565b816006908161004191906104a7565b50806007908161005191906104a7565b50336000806101000a81548173ffffffffffffffffffffffffffffffffffffffff021916908373ffffffffffffffffffffffffffffffffffffffff1602179055505050610579565b6000604051905090565b600080fd5b600080fd5b600080fd5b600080fd5b6000601f19601f8301169050919050565b7f4e487b7100000000000000000000000000000000000000000000000000000000600052604160045260246000fd5b610100826100b7565b810181811067ffffffffffffffff8211171561011f5761011e6100c8565b5b80604052505050565b6000610132610099565b905061013e82826100f7565b919050565b600067ffffffffffffffff82111561015e5761015d6100c8565b5b610167826100b7565b9050602081019050919050565b60005b83811015610192578082015181840152602081019050610177565b60008484015250505050565b60006101b16101ac84610143565b610128565b9050828152602081018484840111156101cd576101cc6100b2565b5b6101d8848285610174565b509392505050565b600082601f8301126101f5576101f46100ad565b5b815161020584826020860161019e565b91505092915050565b60008060408385031215610225576102246100a3565b5b600083015167ffffffffffffffff811115610243576102426100a8565b5b61024f858286016101e0565b925050602083015167ffffffffffffffff8111156102705761026f6100a8565b5b61027c858286016101e0565b9150509250929050565b600081519050919050565b7f4e487b7100000000000000000000000000000000000000000000000000000000600052602260045260246000fd5b600060028204905060018216806102d857607f821691505b6020821081036102eb576102ea610291565b5b50919050565b60008190508160005260206000209050919050565b60006020601f8301049050919050565b600082821b905092915050565b6000600883026103537fffffffffffffffffffffffffffffffffffffffffffffffffffffffffffffffff82610316565b61035d8683610316565b95508019841693508086168417925050509392505050565b6000819050919050565b6000819050919050565b60006103a461039f61039a84610375565b61037f565b610375565b9050919050565b6000819050919050565b6103be83610389565b6103d26103ca826103ab565b848454610323565b825550505050565b600090565b6103e76103da565b6103f28184846103b5565b505050565b5b818110156104165761040b6000826103df565b6001810190506103f8565b5050565b601f82111561045b5761042c816102f1565b61043584610306565b81016020851015610444578190505b61045861045085610306565b8301826103f7565b50505b505050565b600082821c905092915050565b600061047e60001984600802610460565b1980831691505092915050565b6000610497838361046d565b9150826002028217905092915050565b6104b082610286565b67ffffffffffffffff8111156104c9576104c86100c8565b5b6104d382546102c0565b6104de82828561041a565b600060209050601f83116001811461051157600084156104ff578287015190505b610509858261048b565b865550610571565b601f19841661051f866102f1565b60005b8281101561054757848901518255600182019150602085019450602081019050610522565b868310156105645784890151610560601f89168261046d565b8355505b6001600288020188555050505b505050505050565b6138ac806105886000396000f3fe608060405234801561001057600080fd5b50600436106101375760003560e01c80637329f460116100b8578063d1a06f461161007c578063d1a06f46146103a5578063d80cb05c146103c1578063ec4cc78c146103dd578063eef02c2e146103f9578063f851a44014610417578063ff16007e1461043557610137565b80637329f460146102d95780638f09ab5b146102f5578063a9583c2214610325578063b655849814610357578063c84513581461037557610137565b806331dfc91b116100ff57806331dfc91b1461021c5780633c5d5b8014610251578063462c6d131461026f5780635e10df321461028b5780636f16af10146102a957610137565b80630b13acdf1461013c57806312367db01461016c57806318a6640c1461019c5780631abf575a146101ba5780632b72938e146101ec575b600080fd5b610156600480360381019061015191906126b7565b610465565b60405161016391906126ff565b60405180910390f35b61018660048036038101906101819190612896565b6104be565b6040516101939190612971565b60405180910390f35b6101a461058d565b6040516101b19190612971565b60405180910390f35b6101d460048036038101906101cf91906126b7565b61061b565b6040516101e393929190612993565b60405180910390f35b610206600480360381019061020191906126b7565b6106e7565b60405161021391906126ff565b60405180910390f35b610236600480360381019061023191906129d1565b610740565b60405161024896959493929190612a0d565b60405180910390f35b610259610961565b6040516102669190612971565b60405180910390f35b610289600480360381019061028491906126b7565b6109ef565b005b610293610e21565b6040516102a09190612971565b60405180910390f35b6102c360048036038101906102be91906129d1565b610eb3565b6040516102d09190612b82565b60405180910390f35b6102f360048036038101906102ee9190612ba4565b61115d565b005b61030f600480360381019061030a9190612ba4565b611235565b60405161031c9190612d06565b60405180910390f35b61033f600480360381019061033a91906126b7565b6115dc565b60405161034e93929190612993565b60405180910390f35b61035f6116a8565b60405161036c9190612d37565b60405180910390f35b61038f600480360381019061038a9190612d52565b6116ae565b60405161039c9190612d37565b60405180910390f35b6103bf60048036038101906103ba9190612ba4565b61198e565b005b6103db60048036038101906103d691906126b7565b611a66565b005b6103f760048036038101906103f29190612dca565b611e97565b005b610401612085565b60405161040e9190612971565b60405180910390f35b61041f612117565b60405161042c9190612e26565b60405180910390f35b61044f600480360381019061044a9190612ba4565b61213b565b60405161045c9190612eab565b60405180910390f35b6000600160008373ffffffffffffffffffffffffffffffffffffffff1673ffffffffffffffffffffffffffffffffffffffff16815260200190815260200160002060000160019054906101000a900460ff169050919050565b60048280516020810182018051848252602083016020850120818352809550505050505081815481106104f057600080fd5b9060005260206000200160009150915050805461050c90612efc565b80601f016020809104026020016040519081016040528092919081815260200182805461053890612efc565b80156105855780601f1061055a57610100808354040283529160200191610585565b820191906000526020600020905b81548152906001019060200180831161056857829003601f168201915b505050505081565b6006805461059a90612efc565b80601f01602080910402602001604051908101604052809291908181526020018280546105c690612efc565b80156106135780601f106105e857610100808354040283529160200191610613565b820191906000526020600020905b8154815290600101906020018083116105f657829003601f168201915b505050505081565b60026020528060005260406000206000915090508060000160009054906101000a900460ff16908060000160019054906101000a900460ff169080600201805461066490612efc565b80601f016020809104026020016040519081016040528092919081815260200182805461069090612efc565b80156106dd5780601f106106b2576101008083540402835291602001916106dd565b820191906000526020600020905b8154815290600101906020018083116106c057829003601f168201915b5050505050905083565b6000600260008373ffffffffffffffffffffffffffffffffffffffff1673ffffffffffffffffffffffffffffffffffffffff16815260200190815260200160002060000160019054906101000a900460ff169050919050565b60036020528060005260406000206000915090508060000160009054906101000a900473ffffffffffffffffffffffffffffffffffffffff169080600101805461078990612efc565b80601f01602080910402602001604051908101604052809291908181526020018280546107b590612efc565b80156108025780601f106107d757610100808354040283529160200191610802565b820191906000526020600020905b8154815290600101906020018083116107e557829003601f168201915b50505050509080600201805461081790612efc565b80601f016020809104026020016040519081016040528092919081815260200182805461084390612efc565b80156108905780601f1061086557610100808354040283529160200191610890565b820191906000526020600020905b81548152906001019060200180831161087357829003601f168201915b5050505050908060030160009054906101000a900460ff16908060030160019054906101000a900473ffffffffffffffffffffffffffffffffffffffff16908060040180546108de90612efc565b80601f016020809104026020016040519081016040528092919081815260200182805461090a90612efc565b80156109575780601f1061092c57610100808354040283529160200191610957565b820191906000526020600020905b81548152906001019060200180831161093a57829003601f168201915b5050505050905086565b6007805461096e90612efc565b80601f016020809104026020016040519081016040528092919081815260200182805461099a90612efc565b80156109e75780601f106109bc576101008083540402835291602001916109e7565b820191906000526020600020905b8154815290600101906020018083116109ca57829003601f168201915b505050505081565b600260008273ffffffffffffffffffffffffffffffffffffffff1673ffffffffffffffffffffffffffffffffffffffff16815260200190815260200160002060000160009054906101000a900460ff16610a7e576040517f08c379a0000000000000000000000000000000000000000000000000000000008152600401610a7590612f79565b60405180910390fd5b600260008273ffffffffffffffffffffffffffffffffffffffff1673ffffffffffffffffffffffffffffffffffffffff16815260200190815260200160002060000160019054906101000a900460ff1615610b0e576040517f08c379a0000000000000000000000000000000000000000000000000000000008152600401610b0590612fe5565b60405180910390fd5b3373ffffffffffffffffffffffffffffffffffffffff168173ffffffffffffffffffffffffffffffffffffffff1603610b7c576040517f08c379a0000000000000000000000000000000000000000000000000000000008152600401610b7390613051565b60405180910390fd5b60005b600260008373ffffffffffffffffffffffffffffffffffffffff1673ffffffffffffffffffffffffffffffffffffffff16815260200190815260200160002060010180549050811015610cc5573373ffffffffffffffffffffffffffffffffffffffff16600260008473ffffffffffffffffffffffffffffffffffffffff1673ffffffffffffffffffffffffffffffffffffffff1681526020019081526020016000206001018281548110610c3757610c36613071565b5b9060005260206000200160009054906101000a900473ffffffffffffffffffffffffffffffffffffffff1673ffffffffffffffffffffffffffffffffffffffff1603610cb8576040517f08c379a0000000000000000000000000000000000000000000000000000000008152600401610caf90613112565b60405180910390fd5b8080600101915050610b7f565b506001600260008373ffffffffffffffffffffffffffffffffffffffff1673ffffffffffffffffffffffffffffffffffffffff16815260200190815260200160002060000160016101000a81548160ff021916908315150217905550600260008273ffffffffffffffffffffffffffffffffffffffff1673ffffffffffffffffffffffffffffffffffffffff168152602001908152602001600020600101339080600181540180825580915050600190039060005260206000200160009091909190916101000a81548173ffffffffffffffffffffffffffffffffffffffff021916908373ffffffffffffffffffffffffffffffffffffffff1602179055503373ffffffffffffffffffffffffffffffffffffffff168173ffffffffffffffffffffffffffffffffffffffff167f19dcb63de6975856487257e5e0fc6a95ec978af3636fd966f4d4aa4347ac89c760405160405180910390a350565b606060068054610e3090612efc565b80601f0160208091040260200160405190810160405280929190818152602001828054610e5c90612efc565b8015610ea95780601f10610e7e57610100808354040283529160200191610ea9565b820191906000526020600020905b815481529060010190602001808311610e8c57829003601f168201915b5050505050905090565b610ebb6124e2565b600360008381526020019081526020016000206040518060c00160405290816000820160009054906101000a900473ffffffffffffffffffffffffffffffffffffffff1673ffffffffffffffffffffffffffffffffffffffff1673ffffffffffffffffffffffffffffffffffffffff168152602001600182018054610f3f90612efc565b80601f0160208091040260200160405190810160405280929190818152602001828054610f6b90612efc565b8015610fb85780601f10610f8d57610100808354040283529160200191610fb8565b820191906000526020600020905b815481529060010190602001808311610f9b57829003601f168201915b50505050508152602001600282018054610fd190612efc565b80601f0160208091040260200160405190810160405280929190818152602001828054610ffd90612efc565b801561104a5780601f1061101f5761010080835404028352916020019161104a565b820191906000526020600020905b81548152906001019060200180831161102d57829003601f168201915b505050505081526020016003820160009054906101000a900460ff161515151581526020016003820160019054906101000a900473ffffffffffffffffffffffffffffffffffffffff1673ffffffffffffffffffffffffffffffffffffffff1673ffffffffffffffffffffffffffffffffffffffff1681526020016004820180546110d490612efc565b80601f016020809104026020016040519081016040528092919081815260200182805461110090612efc565b801561114d5780601f106111225761010080835404028352916020019161114d565b820191906000526020600020905b81548152906001019060200180831161113057829003601f168201915b5050505050815250509050919050565b60008054906101000a900473ffffffffffffffffffffffffffffffffffffffff1673ffffffffffffffffffffffffffffffffffffffff163373ffffffffffffffffffffffffffffffffffffffff16146111eb576040517f08c379a00000000000000000000000000000000000000000000000000000000081526004016111e2906131a4565b60405180910390fd5b80600790816111fa9190613370565b507f2727ce149c4fd736e091907e1828de3d2f79e9e4cea9519480fd697a24e7cf968160405161122a919061348e565b60405180910390a150565b61123d612546565b600160003373ffffffffffffffffffffffffffffffffffffffff1673ffffffffffffffffffffffffffffffffffffffff16815260200190815260200160002060000160009054906101000a900460ff16156112cd576040517f08c379a00000000000000000000000000000000000000000000000000000000081526004016112c49061350f565b60405180910390fd5b6040518060800160405280600115158152602001600015158152602001600067ffffffffffffffff81111561130557611304612735565b5b6040519080825280602002602001820160405280156113335781602001602082028036833780820191505090505b50815260200183815250600160003373ffffffffffffffffffffffffffffffffffffffff1673ffffffffffffffffffffffffffffffffffffffff16815260200190815260200160002060008201518160000160006101000a81548160ff02191690831515021790555060208201518160000160016101000a81548160ff02191690831515021790555060408201518160010190805190602001906113d8929190612572565b5060608201518160020190816113ee9190613370565b509050503373ffffffffffffffffffffffffffffffffffffffff167f2dc8105a7545248d0e354c4c6b02fb583071cc719fb4bef1ca74d72d475570bc60405160405180910390a2600160003373ffffffffffffffffffffffffffffffffffffffff1673ffffffffffffffffffffffffffffffffffffffff1681526020019081526020016000206040518060800160405290816000820160009054906101000a900460ff161515151581526020016000820160019054906101000a900460ff161515151581526020016001820180548060200260200160405190810160405280929190818152602001828054801561153a57602002820191906000526020600020905b8160009054906101000a900473ffffffffffffffffffffffffffffffffffffffff1673ffffffffffffffffffffffffffffffffffffffff16815260200190600101908083116114f0575b5050505050815260200160028201805461155390612efc565b80601f016020809104026020016040519081016040528092919081815260200182805461157f90612efc565b80156115cc5780601f106115a1576101008083540402835291602001916115cc565b820191906000526020600020905b8154815290600101906020018083116115af57829003601f168201915b5050505050815250509050919050565b60016020528060005260406000206000915090508060000160009054906101000a900460ff16908060000160019054906101000a900460ff169080600201805461162590612efc565b80601f016020809104026020016040519081016040528092919081815260200182805461165190612efc565b801561169e5780601f106116735761010080835404028352916020019161169e565b820191906000526020600020905b81548152906001019060200180831161168157829003601f168201915b5050505050905083565b60055481565b6000600160003373ffffffffffffffffffffffffffffffffffffffff1673ffffffffffffffffffffffffffffffffffffffff16815260200190815260200160002060000160019054906101000a900460ff1661173f576040517f08c379a0000000000000000000000000000000000000000000000000000000008152600401611736906135a1565b60405180910390fd5b60056000815480929190611752906135f0565b91905055506040518060c001604052803373ffffffffffffffffffffffffffffffffffffffff168152602001848152602001838152602001600015158152602001600073ffffffffffffffffffffffffffffffffffffffff1681526020016040518060200160405280600081525081525060036000600554815260200190815260200160002060008201518160000160006101000a81548173ffffffffffffffffffffffffffffffffffffffff021916908373ffffffffffffffffffffffffffffffffffffffff16021790555060208201518160010190816118349190613370565b50604082015181600201908161184a9190613370565b5060608201518160030160006101000a81548160ff02191690831515021790555060808201518160030160016101000a81548173ffffffffffffffffffffffffffffffffffffffff021916908373ffffffffffffffffffffffffffffffffffffffff16021790555060a08201518160040190816118c79190613370565b509050506004836040516118db9190613674565b90815260200160405180910390208290806001815401808255809150506001900390600052602060002001600090919091909150908161191b9190613370565b508260405161192a9190613674565b60405180910390203373ffffffffffffffffffffffffffffffffffffffff166005547f438ffc49c7517b5a34de8bdd2e07f9806928049e479da688312c0c9c350b84c38560405161197b9190612971565b60405180910390a4600554905092915050565b60008054906101000a900473ffffffffffffffffffffffffffffffffffffffff1673ffffffffffffffffffffffffffffffffffffffff163373ffffffffffffffffffffffffffffffffffffffff1614611a1c576040517f08c379a0000000000000000000000000000000000000000000000000000000008152600401611a13906131a4565b60405180910390fd5b8060069081611a2b9190613370565b507f2727ce149c4fd736e091907e1828de3d2f79e9e4cea9519480fd697a24e7cf9681604051611a5b91906136d7565b60405180910390a150565b600160008273ffffffffffffffffffffffffffffffffffffffff1673ffffffffffffffffffffffffffffffffffffffff16815260200190815260200160002060000160009054906101000a900460ff16611af5576040517f08c379a0000000000000000000000000000000000000000000000000000000008152600401611aec90613758565b60405180910390fd5b600160008273ffffffffffffffffffffffffffffffffffffffff1673ffffffffffffffffffffffffffffffffffffffff16815260200190815260200160002060000160019054906101000a900460ff1615611b85576040517f08c379a0000000000000000000000000000000000000000000000000000000008152600401611b7c90612fe5565b60405180910390fd5b3373ffffffffffffffffffffffffffffffffffffffff168173ffffffffffffffffffffffffffffffffffffffff1603611bf3576040517f08c379a0000000000000000000000000000000000000000000000000000000008152600401611bea90613051565b60405180910390fd5b60005b600160008373ffffffffffffffffffffffffffffffffffffffff1673ffffffffffffffffffffffffffffffffffffffff16815260200190815260200160002060010180549050811015611d3c573373ffffffffffffffffffffffffffffffffffffffff16600160008473ffffffffffffffffffffffffffffffffffffffff1673ffffffffffffffffffffffffffffffffffffffff1681526020019081526020016000206001018281548110611cae57611cad613071565b5b9060005260206000200160009054906101000a900473ffffffffffffffffffffffffffffffffffffffff1673ffffffffffffffffffffffffffffffffffffffff1603611d2f576040517f08c379a0000000000000000000000000000000000000000000000000000000008152600401611d2690613112565b60405180910390fd5b8080600101915050611bf6565b5060018060008373ffffffffffffffffffffffffffffffffffffffff1673ffffffffffffffffffffffffffffffffffffffff16815260200190815260200160002060000160016101000a81548160ff021916908315150217905550600160008273ffffffffffffffffffffffffffffffffffffffff1673ffffffffffffffffffffffffffffffffffffffff168152602001908152602001600020600101339080600181540180825580915050600190039060005260206000200160009091909190916101000a81548173ffffffffffffffffffffffffffffffffffffffff021916908373ffffffffffffffffffffffffffffffffffffffff1602179055503373ffffffffffffffffffffffffffffffffffffffff168173ffffffffffffffffffffffffffffffffffffffff167fd5ee64cc05b0be498b4d26e3260e3df119d9bc6c6bac2e8a912351bbf36ee15160405160405180910390a350565b6003600083815260200190815260200160002060030160009054906101000a900460ff1615611efb576040517f08c379a0000000000000000000000000000000000000000000000000000000008152600401611ef2906137c4565b60405180910390fd5b600260003373ffffffffffffffffffffffffffffffffffffffff1673ffffffffffffffffffffffffffffffffffffffff16815260200190815260200160002060000160019054906101000a900460ff16611f8a576040517f08c379a0000000000000000000000000000000000000000000000000000000008152600401611f8190613856565b60405180910390fd5b60016003600084815260200190815260200160002060030160006101000a81548160ff021916908315150217905550336003600084815260200190815260200160002060030160016101000a81548173ffffffffffffffffffffffffffffffffffffffff021916908373ffffffffffffffffffffffffffffffffffffffff160217905550806003600084815260200190815260200160002060040190816120319190613370565b503373ffffffffffffffffffffffffffffffffffffffff16827f70c32b7c89ed6f3c7d3a36625bcf1a369318b835b6994eed1cd4a8df117a9de7836040516120799190612971565b60405180910390a35050565b60606007805461209490612efc565b80601f01602080910402602001604051908101604052809291908181526020018280546120c090612efc565b801561210d5780601f106120e25761010080835404028352916020019161210d565b820191906000526020600020905b8154815290600101906020018083116120f057829003601f168201915b5050505050905090565b60008054906101000a900473ffffffffffffffffffffffffffffffffffffffff1681565b6121436125fc565b600260003373ffffffffffffffffffffffffffffffffffffffff1673ffffffffffffffffffffffffffffffffffffffff16815260200190815260200160002060000160009054906101000a900460ff16156121d3576040517f08c379a00000000000000000000000000000000000000000000000000000000081526004016121ca9061350f565b60405180910390fd5b6040518060800160405280600115158152602001600015158152602001600067ffffffffffffffff81111561220b5761220a612735565b5b6040519080825280602002602001820160405280156122395781602001602082028036833780820191505090505b50815260200183815250600260003373ffffffffffffffffffffffffffffffffffffffff1673ffffffffffffffffffffffffffffffffffffffff16815260200190815260200160002060008201518160000160006101000a81548160ff02191690831515021790555060208201518160000160016101000a81548160ff02191690831515021790555060408201518160010190805190602001906122de929190612572565b5060608201518160020190816122f49190613370565b509050503373ffffffffffffffffffffffffffffffffffffffff167f6c217f4bf5d538fdbcbfa71cabb51e380ac4b3d37b09b49a5e75b4799312206c60405160405180910390a2600260003373ffffffffffffffffffffffffffffffffffffffff1673ffffffffffffffffffffffffffffffffffffffff1681526020019081526020016000206040518060800160405290816000820160009054906101000a900460ff161515151581526020016000820160019054906101000a900460ff161515151581526020016001820180548060200260200160405190810160405280929190818152602001828054801561244057602002820191906000526020600020905b8160009054906101000a900473ffffffffffffffffffffffffffffffffffffffff1673ffffffffffffffffffffffffffffffffffffffff16815260200190600101908083116123f6575b5050505050815260200160028201805461245990612efc565b80601f016020809104026020016040519081016040528092919081815260200182805461248590612efc565b80156124d25780601f106124a7576101008083540402835291602001916124d2565b820191906000526020600020905b8154815290600101906020018083116124b557829003601f168201915b5050505050815250509050919050565b6040518060c00160405280600073ffffffffffffffffffffffffffffffffffffffff1681526020016060815260200160608152602001600015158152602001600073ffffffffffffffffffffffffffffffffffffffff168152602001606081525090565b604051806080016040528060001515815260200160001515815260200160608152602001606081525090565b8280548282559060005260206000209081019282156125eb579160200282015b828111156125ea5782518260006101000a81548173ffffffffffffffffffffffffffffffffffffffff021916908373ffffffffffffffffffffffffffffffffffffffff16021790555091602001919060010190612592565b5b5090506125f89190612628565b5090565b604051806080016040528060001515815260200160001515815260200160608152602001606081525090565b5b80821115612641576000816000905550600101612629565b5090565b6000604051905090565b600080fd5b600080fd5b600073ffffffffffffffffffffffffffffffffffffffff82169050919050565b600061268482612659565b9050919050565b61269481612679565b811461269f57600080fd5b50565b6000813590506126b18161268b565b92915050565b6000602082840312156126cd576126cc61264f565b5b60006126db848285016126a2565b91505092915050565b60008115159050919050565b6126f9816126e4565b82525050565b600060208201905061271460008301846126f0565b92915050565b600080fd5b600080fd5b6000601f19601f8301169050919050565b7f4e487b7100000000000000000000000000000000000000000000000000000000600052604160045260246000fd5b61276d82612724565b810181811067ffffffffffffffff8211171561278c5761278b612735565b5b80604052505050565b600061279f612645565b90506127ab8282612764565b919050565b600067ffffffffffffffff8211156127cb576127ca612735565b5b6127d482612724565b9050602081019050919050565b82818337600083830152505050565b60006128036127fe846127b0565b612795565b90508281526020810184848401111561281f5761281e61271f565b5b61282a8482856127e1565b509392505050565b600082601f8301126128475761284661271a565b5b81356128578482602086016127f0565b91505092915050565b6000819050919050565b61287381612860565b811461287e57600080fd5b50565b6000813590506128908161286a565b92915050565b600080604083850312156128ad576128ac61264f565b5b600083013567ffffffffffffffff8111156128cb576128ca612654565b5b6128d785828601612832565b92505060206128e885828601612881565b9150509250929050565b600081519050919050565b600082825260208201905092915050565b60005b8381101561292c578082015181840152602081019050612911565b60008484015250505050565b6000612943826128f2565b61294d81856128fd565b935061295d81856020860161290e565b61296681612724565b840191505092915050565b6000602082019050818103600083015261298b8184612938565b905092915050565b60006060820190506129a860008301866126f0565b6129b560208301856126f0565b81810360408301526129c78184612938565b9050949350505050565b6000602082840312156129e7576129e661264f565b5b60006129f584828501612881565b91505092915050565b612a0781612679565b82525050565b600060c082019050612a2260008301896129fe565b8181036020830152612a348188612938565b90508181036040830152612a488187612938565b9050612a5760608301866126f0565b612a6460808301856129fe565b81810360a0830152612a768184612938565b9050979650505050505050565b612a8c81612679565b82525050565b600082825260208201905092915050565b6000612aae826128f2565b612ab88185612a92565b9350612ac881856020860161290e565b612ad181612724565b840191505092915050565b612ae5816126e4565b82525050565b600060c083016000830151612b036000860182612a83565b5060208301518482036020860152612b1b8282612aa3565b91505060408301518482036040860152612b358282612aa3565b9150506060830151612b4a6060860182612adc565b506080830151612b5d6080860182612a83565b5060a083015184820360a0860152612b758282612aa3565b9150508091505092915050565b60006020820190508181036000830152612b9c8184612aeb565b905092915050565b600060208284031215612bba57612bb961264f565b5b600082013567ffffffffffffffff811115612bd857612bd7612654565b5b612be484828501612832565b91505092915050565b600081519050919050565b600082825260208201905092915050565b6000819050602082019050919050565b6000612c258383612a83565b60208301905092915050565b6000602082019050919050565b6000612c4982612bed565b612c538185612bf8565b9350612c5e83612c09565b8060005b83811015612c8f578151612c768882612c19565b9750612c8183612c31565b925050600181019050612c62565b5085935050505092915050565b6000608083016000830151612cb46000860182612adc565b506020830151612cc76020860182612adc565b5060408301518482036040860152612cdf8282612c3e565b91505060608301518482036060860152612cf98282612aa3565b9150508091505092915050565b60006020820190508181036000830152612d208184612c9c565b905092915050565b612d3181612860565b82525050565b6000602082019050612d4c6000830184612d28565b92915050565b60008060408385031215612d6957612d6861264f565b5b600083013567ffffffffffffffff811115612d8757612d86612654565b5b612d9385828601612832565b925050602083013567ffffffffffffffff811115612db457612db3612654565b5b612dc085828601612832565b9150509250929050565b60008060408385031215612de157612de061264f565b5b6000612def85828601612881565b925050602083013567ffffffffffffffff811115612e1057612e0f612654565b5b612e1c85828601612832565b9150509250929050565b6000602082019050612e3b60008301846129fe565b92915050565b6000608083016000830151612e596000860182612adc565b506020830151612e6c6020860182612adc565b5060408301518482036040860152612e848282612c3e565b91505060608301518482036060860152612e9e8282612aa3565b9150508091505092915050565b60006020820190508181036000830152612ec58184612e41565b905092915050565b7f4e487b7100000000000000000000000000000000000000000000000000000000600052602260045260246000fd5b60006002820490506001821680612f1457607f821691505b602082108103612f2757612f26612ecd565b5b50919050565b7f506861726d6163697374206e6f74207265676973746572656400000000000000600082015250565b6000612f636019836128fd565b9150612f6e82612f2d565b602082019050919050565b60006020820190508181036000830152612f9281612f56565b9050919050565b7f416c726561647920766572696669656400000000000000000000000000000000600082015250565b6000612fcf6010836128fd565b9150612fda82612f99565b602082019050919050565b60006020820190508181036000830152612ffe81612fc2565b9050919050565b7f43616e6e6f74207665726966792073656c660000000000000000000000000000600082015250565b600061303b6012836128fd565b915061304682613005565b602082019050919050565b6000602082019050818103600083015261306a8161302e565b9050919050565b7f4e487b7100000000000000000000000000000000000000000000000000000000600052603260045260246000fd5b7f416c72656164792076657269666965642062792074686973207665726966696560008201527f7200000000000000000000000000000000000000000000000000000000000000602082015250565b60006130fc6021836128fd565b9150613107826130a0565b604082019050919050565b6000602082019050818103600083015261312b816130ef565b9050919050565b7f4f6e6c79206f776e65722063616e2063616c6c20746869732066756e6374696f60008201527f6e00000000000000000000000000000000000000000000000000000000000000602082015250565b600061318e6021836128fd565b915061319982613132565b604082019050919050565b600060208201905081810360008301526131bd81613181565b9050919050565b60008190508160005260206000209050919050565b60006020601f8301049050919050565b600082821b905092915050565b6000600883026132267fffffffffffffffffffffffffffffffffffffffffffffffffffffffffffffffff826131e9565b61323086836131e9565b95508019841693508086168417925050509392505050565b6000819050919050565b600061326d61326861326384612860565b613248565b612860565b9050919050565b6000819050919050565b61328783613252565b61329b61329382613274565b8484546131f6565b825550505050565b600090565b6132b06132a3565b6132bb81848461327e565b505050565b5b818110156132df576132d46000826132a8565b6001810190506132c1565b5050565b601f821115613324576132f5816131c4565b6132fe846131d9565b8101602085101561330d578190505b613321613319856131d9565b8301826132c0565b50505b505050565b600082821c905092915050565b600061334760001984600802613329565b1980831691505092915050565b60006133608383613336565b9150826002028217905092915050565b613379826128f2565b67ffffffffffffffff81111561339257613391612735565b5b61339c8254612efc565b6133a78282856132e3565b600060209050601f8311600181146133da57600084156133c8578287015190505b6133d28582613354565b86555061343a565b601f1984166133e8866131c4565b60005b82811015613410578489015182556001820191506020850194506020810190506133eb565b8683101561342d5784890151613429601f891682613336565b8355505b6001600288020188555050505b505050505050565b7f506861726d61637956657269666965724c697374000000000000000000000000600082015250565b60006134786014836128fd565b915061348382613442565b602082019050919050565b600060408201905081810360008301526134a78161346b565b905081810360208301526134bb8184612938565b905092915050565b7f416c726561647920726567697374657265640000000000000000000000000000600082015250565b60006134f96012836128fd565b9150613504826134c3565b602082019050919050565b60006020820190508181036000830152613528816134ec565b9050919050565b7f4f6e6c7920766572696669656420646f63746f72732063616e2069737375652060008201527f707265736372697074696f6e7300000000000000000000000000000000000000602082015250565b600061358b602d836128fd565b91506135968261352f565b604082019050919050565b600060208201905081810360008301526135ba8161357e565b9050919050565b7f4e487b7100000000000000000000000000000000000000000000000000000000600052601160045260246000fd5b60006135fb82612860565b91507fffffffffffffffffffffffffffffffffffffffffffffffffffffffffffffffff820361362d5761362c6135c1565b5b600182019050919050565b600081905092915050565b600061364e826128f2565b6136588185613638565b935061366881856020860161290e565b80840191505092915050565b60006136808284613643565b915081905092915050565b7f446f63746f7256657269666965724c6973740000000000000000000000000000600082015250565b60006136c16012836128fd565b91506136cc8261368b565b602082019050919050565b600060408201905081810360008301526136f0816136b4565b905081810360208301526137048184612938565b905092915050565b7f446f63746f72206e6f7420726567697374657265640000000000000000000000600082015250565b60006137426015836128fd565b915061374d8261370c565b602082019050919050565b6000602082019050818103600083015261377181613735565b9050919050565b7f507265736372697074696f6e20616c72656164792064697370656e7365640000600082015250565b60006137ae601e836128fd565b91506137b982613778565b602082019050919050565b600060208201905081810360008301526137dd816137a1565b9050919050565b7f4f6e6c7920766572696669656420706861726d6163697374732063616e20646960008201527f7370656e736520707265736372697074696f6e73000000000000000000000000602082015250565b60006138406034836128fd565b915061384b826137e4565b604082019050919050565b6000602082019050818103600083015261386f81613833565b905091905056fea26469706673582212206d06d6d7d5cd688566796f90fb0a0a290c98e668bcd44634f167b6d21356b45f64736f6c634300081c0033",
  "linkReferences": {},
  "deployedLinkReferences": {}
}